{
  "contracts/static.sol": {
    "Static2": {
      "abi": [
        {
          "inputs": [
            {
              "internalType": "string",
              "name": "b",
              "type": "string"
            },
            {
              "internalType": "uint128",
              "name": "a",
              "type": "uint128"
            },
            {
              "internalType": "uint128",
              "name": "c",
              "type": "uint128"
            }
          ],
          "name": "statistics",
          "outputs": [],
          "stateMutability": "nonpayable",
          "type": "function"
        }
      ],
      "evm": {
        "bytecode": {
          "linkReferences": {},
          "object": "608060405234801561001057600080fd5b50610164806100206000396000f3fe608060405234801561001057600080fd5b506004361061002b5760003560e01c80639dc3d1d314610030575b600080fd5b61004361003e366004610070565b610045565b005b505050565b80356fffffffffffffffffffffffffffffffff8116811461006a57600080fd5b92915050565b600080600060608486031215610084578283fd5b833567ffffffffffffffff8082111561009b578485fd5b81860187601f8201126100ac578586fd5b80359250818311156100bc578586fd5b6040516020601f8501601f19168201810184811183821017156100dd578889fd5b60405284825282850181018a10156100f3578788fd5b8481840182840137878186840101528197506101118a828b0161004a565b96505050505050610125856040860161004a565b9050925092509256fea2646970667358221220a4a3da39a27e7218f5acf449b55fc346fb0c44e6d9c3474ae71afff987d3843864736f6c63430006060033",
          "opcodes": "PUSH1 0x80 PUSH1 0x40 MSTORE CALLVALUE DUP1 ISZERO PUSH2 0x10 JUMPI PUSH1 0x0 DUP1 REVERT JUMPDEST POP PUSH2 0x164 DUP1 PUSH2 0x20 PUSH1 0x0 CODECOPY PUSH1 0x0 RETURN INVALID PUSH1 0x80 PUSH1 0x40 MSTORE CALLVALUE DUP1 ISZERO PUSH2 0x10 JUMPI PUSH1 0x0 DUP1 REVERT JUMPDEST POP PUSH1 0x4 CALLDATASIZE LT PUSH2 0x2B JUMPI PUSH1 0x0 CALLDATALOAD PUSH1 0xE0 SHR DUP1 PUSH4 0x9DC3D1D3 EQ PUSH2 0x30 JUMPI JUMPDEST PUSH1 0x0 DUP1 REVERT JUMPDEST PUSH2 0x43 PUSH2 0x3E CALLDATASIZE PUSH1 0x4 PUSH2 0x70 JUMP JUMPDEST PUSH2 0x45 JUMP JUMPDEST STOP JUMPDEST POP POP POP JUMP JUMPDEST DUP1 CALLDATALOAD PUSH16 0xFFFFFFFFFFFFFFFFFFFFFFFFFFFFFFFF DUP2 AND DUP2 EQ PUSH2 0x6A JUMPI PUSH1 0x0 DUP1 REVERT JUMPDEST SWAP3 SWAP2 POP POP JUMP JUMPDEST PUSH1 0x0 DUP1 PUSH1 0x0 PUSH1 0x60 DUP5 DUP7 SUB SLT ISZERO PUSH2 0x84 JUMPI DUP3 DUP4 REVERT JUMPDEST DUP4 CALLDATALOAD PUSH8 0xFFFFFFFFFFFFFFFF DUP1 DUP3 GT ISZERO PUSH2 0x9B JUMPI DUP5 DUP6 REVERT JUMPDEST DUP2 DUP7 ADD DUP8 PUSH1 0x1F DUP3 ADD SLT PUSH2 0xAC JUMPI DUP6 DUP7 REVERT JUMPDEST DUP1 CALLDATALOAD SWAP3 POP DUP2 DUP4 GT ISZERO PUSH2 0xBC JUMPI DUP6 DUP7 REVERT JUMPDEST PUSH1 0x40 MLOAD PUSH1 0x20 PUSH1 0x1F DUP6 ADD PUSH1 0x1F NOT AND DUP3 ADD DUP2 ADD DUP5 DUP2 GT DUP4 DUP3 LT OR ISZERO PUSH2 0xDD JUMPI DUP9 DUP10 REVERT JUMPDEST PUSH1 0x40 MSTORE DUP5 DUP3 MSTORE DUP3 DUP6 ADD DUP2 ADD DUP11 LT ISZERO PUSH2 0xF3 JUMPI DUP8 DUP9 REVERT JUMPDEST DUP5 DUP2 DUP5 ADD DUP3 DUP5 ADD CALLDATACOPY DUP8 DUP2 DUP7 DUP5 ADD ADD MSTORE DUP2 SWAP8 POP PUSH2 0x111 DUP11 DUP3 DUP12 ADD PUSH2 0x4A JUMP JUMPDEST SWAP7 POP POP POP POP POP POP PUSH2 0x125 DUP6 PUSH1 0x40 DUP7 ADD PUSH2 0x4A JUMP JUMPDEST SWAP1 POP SWAP3 POP SWAP3 POP SWAP3 JUMP INVALID LOG2 PUSH5 0x6970667358 0x22 SLT KECCAK256 LOG4 LOG3 0xDA CODECOPY LOG2 PUSH31 0x7218F5ACF449B55FC346FB0C44E6D9C3474AE71AFFF987D3843864736F6C63 NUMBER STOP MOD MOD STOP CALLER "
        },
        "methodIdentifiers": {
          "statistics(string,uint128,uint128)": "9dc3d1d3"
        }
      }
    }
  }
}