{
  "contracts/static.sol": {
    "Static1": {
      "abi": [
        {
          "inputs": [
            {
              "internalType": "uint128",
              "name": "a",
              "type": "uint128"
            },
            {
              "internalType": "string",
              "name": "b",
              "type": "string"
            },
            {
              "internalType": "uint128",
              "name": "c",
              "type": "uint128"
            }
          ],
          "name": "statistics",
          "outputs": [],
          "stateMutability": "nonpayable",
          "type": "function"
        },
        {
          "inputs": [
            {
              "internalType": "uint128[]",
              "name": "a",
              "type": "uint128[]"
            },
            {
              "internalType": "uint256",
              "name": "b",
              "type": "uint256"
            },
            {
              "internalType": "uint128",
              "name": "c",
              "type": "uint128"
            }
          ],
          "name": "statistics1",
          "outputs": [],
          "stateMutability": "nonpayable",
          "type": "function"
        },
        {
          "inputs": [
            {
              "internalType": "string",
              "name": "a",
              "type": "string"
            },
            {
              "internalType": "uint256",
              "name": "b",
              "type": "uint256"
            },
            {
              "internalType": "uint128",
              "name": "c",
              "type": "uint128"
            }
          ],
          "name": "statistics2",
          "outputs": [],
          "stateMutability": "nonpayable",
          "type": "function"
        },
        {
          "inputs": [
            {
              "internalType": "bytes",
              "name": "a",
              "type": "bytes"
            },
            {
              "internalType": "uint256",
              "name": "b",
              "type": "uint256"
            },
            {
              "internalType": "uint128",
              "name": "c",
              "type": "uint128"
            }
          ],
          "name": "statistics3",
          "outputs": [],
          "stateMutability": "nonpayable",
          "type": "function"
        },
        {
          "inputs": [
            {
              "internalType": "bytes32",
              "name": "a",
              "type": "bytes32"
            },
            {
              "internalType": "uint256",
              "name": "b",
              "type": "uint256"
            },
            {
              "internalType": "uint128",
              "name": "c",
              "type": "uint128"
            }
          ],
          "name": "statistics4",
          "outputs": [],
          "stateMutability": "nonpayable",
          "type": "function"
        },
        {
          "inputs": [
            {
              "components": [
                {
                  "internalType": "uint256",
                  "name": "dd",
                  "type": "uint256"
                },
                {
                  "internalType": "uint256",
                  "name": "kjd",
                  "type": "uint256"
                }
              ],
              "internalType": "struct Static1.aa",
              "name": "a",
              "type": "tuple"
            },
            {
              "internalType": "uint256",
              "name": "b",
              "type": "uint256"
            },
            {
              "internalType": "uint128",
              "name": "c",
              "type": "uint128"
            }
          ],
          "name": "statistics5",
          "outputs": [],
          "stateMutability": "nonpayable",
          "type": "function"
        }
      ],
      "evm": {
        "bytecode": {
          "linkReferences": {},
          "object": "608060405234801561001057600080fd5b50610400806100206000396000f3fe608060405234801561001057600080fd5b50600436106100625760003560e01c8063253c6142146100675780633512e3331461007c578063462fb0ec1461008a5780637f3a368414610098578063908b1e5b146100a6578063ccee8c5f146100b4575b600080fd5b61007a610075366004610212565b6100c2565b005b61007a6100753660046102e4565b61007a61007536600461014d565b61007a61007536600461028b565b61007a610075366004610336565b61007a61007536600461023e565b505050565b600082601f8301126100d7578081fd5b813567ffffffffffffffff8111156100ed578182fd5b610100601f8201601f191660200161038b565b915080825283602082850101111561011757600080fd5b8060208401602084013760009082016020015292915050565b80356001600160801b038116811461014757600080fd5b92915050565b600080600060608486031215610161578283fd5b833567ffffffffffffffff80821115610178578485fd5b81860187601f820112610189578586fd5b8035925081831115610199578586fd5b602091508183026101ab83820161038b565b8481528381019083850183850186018c10156101c557898afd5b8994505b868510156101ef576101db8c82610130565b8352600194909401939185019185016101c9565b509750505050850135925061020990508560408601610130565b90509250925092565b600080600060608486031215610226578283fd5b83359250602084013591506102098560408601610130565b600080600060608486031215610252578283fd5b833567ffffffffffffffff811115610268578384fd5b610274868287016100c7565b935050602084013591506102098560408601610130565b60008060006060848603121561029f578283fd5b833567ffffffffffffffff8111156102b5578384fd5b6102c1868287016100c7565b9350506020840135915060408401356102d9816103b2565b809150509250925092565b600080600083850360808112156102f9578384fd5b6040811215610306578384fd5b50610311604061038b565b843581526020808601359082015292506040840135915060608401356102d9816103b2565b60008060006060848603121561034a578283fd5b6103548585610130565b9250602084013567ffffffffffffffff81111561036f578283fd5b61037b868287016100c7565b9250506102098560408601610130565b60405181810167ffffffffffffffff811182821017156103aa57600080fd5b604052919050565b6001600160801b03811681146103c757600080fd5b5056fea2646970667358221220c2bf3891d6ba359d1d732bb6843a15bc0a081a0a7c9bdea896068b03a3b8ed3a64736f6c63430006060033",
          "opcodes": "PUSH1 0x80 PUSH1 0x40 MSTORE CALLVALUE DUP1 ISZERO PUSH2 0x10 JUMPI PUSH1 0x0 DUP1 REVERT JUMPDEST POP PUSH2 0x400 DUP1 PUSH2 0x20 PUSH1 0x0 CODECOPY PUSH1 0x0 RETURN INVALID PUSH1 0x80 PUSH1 0x40 MSTORE CALLVALUE DUP1 ISZERO PUSH2 0x10 JUMPI PUSH1 0x0 DUP1 REVERT JUMPDEST POP PUSH1 0x4 CALLDATASIZE LT PUSH2 0x62 JUMPI PUSH1 0x0 CALLDATALOAD PUSH1 0xE0 SHR DUP1 PUSH4 0x253C6142 EQ PUSH2 0x67 JUMPI DUP1 PUSH4 0x3512E333 EQ PUSH2 0x7C JUMPI DUP1 PUSH4 0x462FB0EC EQ PUSH2 0x8A JUMPI DUP1 PUSH4 0x7F3A3684 EQ PUSH2 0x98 JUMPI DUP1 PUSH4 0x908B1E5B EQ PUSH2 0xA6 JUMPI DUP1 PUSH4 0xCCEE8C5F EQ PUSH2 0xB4 JUMPI JUMPDEST PUSH1 0x0 DUP1 REVERT JUMPDEST PUSH2 0x7A PUSH2 0x75 CALLDATASIZE PUSH1 0x4 PUSH2 0x212 JUMP JUMPDEST PUSH2 0xC2 JUMP JUMPDEST STOP JUMPDEST PUSH2 0x7A PUSH2 0x75 CALLDATASIZE PUSH1 0x4 PUSH2 0x2E4 JUMP JUMPDEST PUSH2 0x7A PUSH2 0x75 CALLDATASIZE PUSH1 0x4 PUSH2 0x14D JUMP JUMPDEST PUSH2 0x7A PUSH2 0x75 CALLDATASIZE PUSH1 0x4 PUSH2 0x28B JUMP JUMPDEST PUSH2 0x7A PUSH2 0x75 CALLDATASIZE PUSH1 0x4 PUSH2 0x336 JUMP JUMPDEST PUSH2 0x7A PUSH2 0x75 CALLDATASIZE PUSH1 0x4 PUSH2 0x23E JUMP JUMPDEST POP POP POP JUMP JUMPDEST PUSH1 0x0 DUP3 PUSH1 0x1F DUP4 ADD SLT PUSH2 0xD7 JUMPI DUP1 DUP2 REVERT JUMPDEST DUP2 CALLDATALOAD PUSH8 0xFFFFFFFFFFFFFFFF DUP2 GT ISZERO PUSH2 0xED JUMPI DUP2 DUP3 REVERT JUMPDEST PUSH2 0x100 PUSH1 0x1F DUP3 ADD PUSH1 0x1F NOT AND PUSH1 0x20 ADD PUSH2 0x38B JUMP JUMPDEST SWAP2 POP DUP1 DUP3 MSTORE DUP4 PUSH1 0x20 DUP3 DUP6 ADD ADD GT ISZERO PUSH2 0x117 JUMPI PUSH1 0x0 DUP1 REVERT JUMPDEST DUP1 PUSH1 0x20 DUP5 ADD PUSH1 0x20 DUP5 ADD CALLDATACOPY PUSH1 0x0 SWAP1 DUP3 ADD PUSH1 0x20 ADD MSTORE SWAP3 SWAP2 POP POP JUMP JUMPDEST DUP1 CALLDATALOAD PUSH1 0x1 PUSH1 0x1 PUSH1 0x80 SHL SUB DUP2 AND DUP2 EQ PUSH2 0x147 JUMPI PUSH1 0x0 DUP1 REVERT JUMPDEST SWAP3 SWAP2 POP POP JUMP JUMPDEST PUSH1 0x0 DUP1 PUSH1 0x0 PUSH1 0x60 DUP5 DUP7 SUB SLT ISZERO PUSH2 0x161 JUMPI DUP3 DUP4 REVERT JUMPDEST DUP4 CALLDATALOAD PUSH8 0xFFFFFFFFFFFFFFFF DUP1 DUP3 GT ISZERO PUSH2 0x178 JUMPI DUP5 DUP6 REVERT JUMPDEST DUP2 DUP7 ADD DUP8 PUSH1 0x1F DUP3 ADD SLT PUSH2 0x189 JUMPI DUP6 DUP7 REVERT JUMPDEST DUP1 CALLDATALOAD SWAP3 POP DUP2 DUP4 GT ISZERO PUSH2 0x199 JUMPI DUP6 DUP7 REVERT JUMPDEST PUSH1 0x20 SWAP2 POP DUP2 DUP4 MUL PUSH2 0x1AB DUP4 DUP3 ADD PUSH2 0x38B JUMP JUMPDEST DUP5 DUP2 MSTORE DUP4 DUP2 ADD SWAP1 DUP4 DUP6 ADD DUP4 DUP6 ADD DUP7 ADD DUP13 LT ISZERO PUSH2 0x1C5 JUMPI DUP10 DUP11 REVERT JUMPDEST DUP10 SWAP5 POP JUMPDEST DUP7 DUP6 LT ISZERO PUSH2 0x1EF JUMPI PUSH2 0x1DB DUP13 DUP3 PUSH2 0x130 JUMP JUMPDEST DUP4 MSTORE PUSH1 0x1 SWAP5 SWAP1 SWAP5 ADD SWAP4 SWAP2 DUP6 ADD SWAP2 DUP6 ADD PUSH2 0x1C9 JUMP JUMPDEST POP SWAP8 POP POP POP POP DUP6 ADD CALLDATALOAD SWAP3 POP PUSH2 0x209 SWAP1 POP DUP6 PUSH1 0x40 DUP7 ADD PUSH2 0x130 JUMP JUMPDEST SWAP1 POP SWAP3 POP SWAP3 POP SWAP3 JUMP JUMPDEST PUSH1 0x0 DUP1 PUSH1 0x0 PUSH1 0x60 DUP5 DUP7 SUB SLT ISZERO PUSH2 0x226 JUMPI DUP3 DUP4 REVERT JUMPDEST DUP4 CALLDATALOAD SWAP3 POP PUSH1 0x20 DUP5 ADD CALLDATALOAD SWAP2 POP PUSH2 0x209 DUP6 PUSH1 0x40 DUP7 ADD PUSH2 0x130 JUMP JUMPDEST PUSH1 0x0 DUP1 PUSH1 0x0 PUSH1 0x60 DUP5 DUP7 SUB SLT ISZERO PUSH2 0x252 JUMPI DUP3 DUP4 REVERT JUMPDEST DUP4 CALLDATALOAD PUSH8 0xFFFFFFFFFFFFFFFF DUP2 GT ISZERO PUSH2 0x268 JUMPI DUP4 DUP5 REVERT JUMPDEST PUSH2 0x274 DUP7 DUP3 DUP8 ADD PUSH2 0xC7 JUMP JUMPDEST SWAP4 POP POP PUSH1 0x20 DUP5 ADD CALLDATALOAD SWAP2 POP PUSH2 0x209 DUP6 PUSH1 0x40 DUP7 ADD PUSH2 0x130 JUMP JUMPDEST PUSH1 0x0 DUP1 PUSH1 0x0 PUSH1 0x60 DUP5 DUP7 SUB SLT ISZERO PUSH2 0x29F JUMPI DUP3 DUP4 REVERT JUMPDEST DUP4 CALLDATALOAD PUSH8 0xFFFFFFFFFFFFFFFF DUP2 GT ISZERO PUSH2 0x2B5 JUMPI DUP4 DUP5 REVERT JUMPDEST PUSH2 0x2C1 DUP7 DUP3 DUP8 ADD PUSH2 0xC7 JUMP JUMPDEST SWAP4 POP POP PUSH1 0x20 DUP5 ADD CALLDATALOAD SWAP2 POP PUSH1 0x40 DUP5 ADD CALLDATALOAD PUSH2 0x2D9 DUP2 PUSH2 0x3B2 JUMP JUMPDEST DUP1 SWAP2 POP POP SWAP3 POP SWAP3 POP SWAP3 JUMP JUMPDEST PUSH1 0x0 DUP1 PUSH1 0x0 DUP4 DUP6 SUB PUSH1 0x80 DUP2 SLT ISZERO PUSH2 0x2F9 JUMPI DUP4 DUP5 REVERT JUMPDEST PUSH1 0x40 DUP2 SLT ISZERO PUSH2 0x306 JUMPI DUP4 DUP5 REVERT JUMPDEST POP PUSH2 0x311 PUSH1 0x40 PUSH2 0x38B JUMP JUMPDEST DUP5 CALLDATALOAD DUP2 MSTORE PUSH1 0x20 DUP1 DUP7 ADD CALLDATALOAD SWAP1 DUP3 ADD MSTORE SWAP3 POP PUSH1 0x40 DUP5 ADD CALLDATALOAD SWAP2 POP PUSH1 0x60 DUP5 ADD CALLDATALOAD PUSH2 0x2D9 DUP2 PUSH2 0x3B2 JUMP JUMPDEST PUSH1 0x0 DUP1 PUSH1 0x0 PUSH1 0x60 DUP5 DUP7 SUB SLT ISZERO PUSH2 0x34A JUMPI DUP3 DUP4 REVERT JUMPDEST PUSH2 0x354 DUP6 DUP6 PUSH2 0x130 JUMP JUMPDEST SWAP3 POP PUSH1 0x20 DUP5 ADD CALLDATALOAD PUSH8 0xFFFFFFFFFFFFFFFF DUP2 GT ISZERO PUSH2 0x36F JUMPI DUP3 DUP4 REVERT JUMPDEST PUSH2 0x37B DUP7 DUP3 DUP8 ADD PUSH2 0xC7 JUMP JUMPDEST SWAP3 POP POP PUSH2 0x209 DUP6 PUSH1 0x40 DUP7 ADD PUSH2 0x130 JUMP JUMPDEST PUSH1 0x40 MLOAD DUP2 DUP2 ADD PUSH8 0xFFFFFFFFFFFFFFFF DUP2 GT DUP3 DUP3 LT OR ISZERO PUSH2 0x3AA JUMPI PUSH1 0x0 DUP1 REVERT JUMPDEST PUSH1 0x40 MSTORE SWAP2 SWAP1 POP JUMP JUMPDEST PUSH1 0x1 PUSH1 0x1 PUSH1 0x80 SHL SUB DUP2 AND DUP2 EQ PUSH2 0x3C7 JUMPI PUSH1 0x0 DUP1 REVERT JUMPDEST POP JUMP INVALID LOG2 PUSH5 0x6970667358 0x22 SLT KECCAK256 0xC2 0xBF CODESIZE SWAP2 0xD6 0xBA CALLDATALOAD SWAP14 SAR PUSH20 0x2BB6843A15BC0A081A0A7C9BDEA896068B03A3B8 0xED GASPRICE PUSH5 0x736F6C6343 STOP MOD MOD STOP CALLER "
        },
        "methodIdentifiers": {
          "statistics(uint128,string,uint128)": "908b1e5b",
          "statistics1(uint128[],uint256,uint128)": "462fb0ec",
          "statistics2(string,uint256,uint128)": "7f3a3684",
          "statistics3(bytes,uint256,uint128)": "ccee8c5f",
          "statistics4(bytes32,uint256,uint128)": "253c6142",
          "statistics5((uint256,uint256),uint256,uint128)": "3512e333"
        }
      }
    }
  }
}