{
  "contracts/orai.sol": {
    "OraiToken": {
      "abi": [
        {
          "constant": true,
          "inputs": [],
          "name": "name",
          "outputs": [
            {
              "name": "",
              "type": "string"
            }
          ],
          "payable": false,
          "stateMutability": "view",
          "type": "function"
        },
        {
          "constant": false,
          "inputs": [
            {
              "name": "_spender",
              "type": "address"
            },
            {
              "name": "_value",
              "type": "uint256"
            }
          ],
          "name": "approve",
          "outputs": [
            {
              "name": "",
              "type": "bool"
            }
          ],
          "payable": false,
          "stateMutability": "nonpayable",
          "type": "function"
        },
        {
          "constant": true,
          "inputs": [],
          "name": "totalSupply",
          "outputs": [
            {
              "name": "",
              "type": "uint256"
            }
          ],
          "payable": false,
          "stateMutability": "view",
          "type": "function"
        },
        {
          "constant": false,
          "inputs": [
            {
              "name": "_from",
              "type": "address"
            },
            {
              "name": "_to",
              "type": "address"
            },
            {
              "name": "_value",
              "type": "uint256"
            }
          ],
          "name": "transferFrom",
          "outputs": [
            {
              "name": "",
              "type": "bool"
            }
          ],
          "payable": false,
          "stateMutability": "nonpayable",
          "type": "function"
        },
        {
          "constant": true,
          "inputs": [],
          "name": "decimals",
          "outputs": [
            {
              "name": "",
              "type": "uint8"
            }
          ],
          "payable": false,
          "stateMutability": "view",
          "type": "function"
        },
        {
          "constant": false,
          "inputs": [
            {
              "name": "_to",
              "type": "address"
            },
            {
              "name": "_value",
              "type": "uint256"
            },
            {
              "name": "_data",
              "type": "bytes"
            }
          ],
          "name": "transferAndCall",
          "outputs": [
            {
              "name": "success",
              "type": "bool"
            }
          ],
          "payable": false,
          "stateMutability": "nonpayable",
          "type": "function"
        },
        {
          "constant": false,
          "inputs": [
            {
              "name": "_spender",
              "type": "address"
            },
            {
              "name": "_subtractedValue",
              "type": "uint256"
            }
          ],
          "name": "decreaseApproval",
          "outputs": [
            {
              "name": "success",
              "type": "bool"
            }
          ],
          "payable": false,
          "stateMutability": "nonpayable",
          "type": "function"
        },
        {
          "constant": true,
          "inputs": [
            {
              "name": "_owner",
              "type": "address"
            }
          ],
          "name": "balanceOf",
          "outputs": [
            {
              "name": "balance",
              "type": "uint256"
            }
          ],
          "payable": false,
          "stateMutability": "view",
          "type": "function"
        },
        {
          "constant": true,
          "inputs": [],
          "name": "symbol",
          "outputs": [
            {
              "name": "",
              "type": "string"
            }
          ],
          "payable": false,
          "stateMutability": "view",
          "type": "function"
        },
        {
          "constant": false,
          "inputs": [
            {
              "name": "_to",
              "type": "address"
            },
            {
              "name": "_value",
              "type": "uint256"
            }
          ],
          "name": "transfer",
          "outputs": [
            {
              "name": "success",
              "type": "bool"
            }
          ],
          "payable": false,
          "stateMutability": "nonpayable",
          "type": "function"
        },
        {
          "constant": false,
          "inputs": [
            {
              "name": "_spender",
              "type": "address"
            },
            {
              "name": "_addedValue",
              "type": "uint256"
            }
          ],
          "name": "increaseApproval",
          "outputs": [
            {
              "name": "success",
              "type": "bool"
            }
          ],
          "payable": false,
          "stateMutability": "nonpayable",
          "type": "function"
        },
        {
          "constant": true,
          "inputs": [
            {
              "name": "_owner",
              "type": "address"
            },
            {
              "name": "_spender",
              "type": "address"
            }
          ],
          "name": "allowance",
          "outputs": [
            {
              "name": "remaining",
              "type": "uint256"
            }
          ],
          "payable": false,
          "stateMutability": "view",
          "type": "function"
        },
        {
          "inputs": [],
          "payable": false,
          "stateMutability": "nonpayable",
          "type": "constructor"
        },
        {
          "anonymous": false,
          "inputs": [
            {
              "indexed": true,
              "name": "from",
              "type": "address"
            },
            {
              "indexed": true,
              "name": "to",
              "type": "address"
            },
            {
              "indexed": false,
              "name": "value",
              "type": "uint256"
            },
            {
              "indexed": false,
              "name": "data",
              "type": "bytes"
            }
          ],
          "name": "Transfer",
          "type": "event"
        },
        {
          "anonymous": false,
          "inputs": [
            {
              "indexed": true,
              "name": "owner",
              "type": "address"
            },
            {
              "indexed": true,
              "name": "spender",
              "type": "address"
            },
            {
              "indexed": false,
              "name": "value",
              "type": "uint256"
            }
          ],
          "name": "Approval",
          "type": "event"
        },
        {
          "anonymous": false,
          "inputs": [
            {
              "indexed": true,
              "name": "from",
              "type": "address"
            },
            {
              "indexed": true,
              "name": "to",
              "type": "address"
            },
            {
              "indexed": false,
              "name": "value",
              "type": "uint256"
            }
          ],
          "name": "Transfer",
          "type": "event"
        }
      ],
      "devdoc": {
        "methods": {
          "allowance(address,address)": {
            "details": "Function to check the amount of tokens that an owner allowed to a spender.",
            "params": {
              "_owner": "address The address which owns the funds.",
              "_spender": "address The address which will spend the funds."
            },
            "return": "A uint256 specifying the amount of tokens still available for the spender."
          },
          "approve(address,uint256)": {
            "details": "Approve the passed address to spend the specified amount of tokens on behalf of msg.sender.",
            "params": {
              "_spender": "The address which will spend the funds.",
              "_value": "The amount of tokens to be spent."
            }
          },
          "balanceOf(address)": {
            "details": "Gets the balance of the specified address.",
            "params": {
              "_owner": "The address to query the the balance of."
            },
            "return": "An uint256 representing the amount owned by the passed address."
          },
          "transfer(address,uint256)": {
            "details": "transfer token to a specified address.",
            "params": {
              "_to": "The address to transfer to.",
              "_value": "The amount to be transferred."
            }
          },
          "transferAndCall(address,uint256,bytes)": {
            "details": "transfer token to a specified address with additional data if the recipient is a contract.",
            "params": {
              "_data": "The extra data to be passed to the receiving contract.",
              "_to": "The address to transfer to.",
              "_value": "The amount to be transferred."
            }
          },
          "transferFrom(address,address,uint256)": {
            "details": "Transfer tokens from one address to another",
            "params": {
              "_from": "address The address which you want to send tokens from",
              "_to": "address The address which you want to transfer to",
              "_value": "uint256 the amount of tokens to be transferred"
            }
          }
        }
      },
      "evm": {
        "assembly": "    /* \"contracts/orai.sol\":7578:9836  contract OraiToken is StandardToken, ERC677Token {... */\n  mstore(0x40, 0x60)\n    /* \"contracts/orai.sol\":7826:7905  function OraiToken() public {... */\n  jumpi(tag_1, iszero(callvalue))\n  0x0\n  dup1\n  revert\ntag_1:\n  sub(exp(0x2, 0xa0), 0x1)\n    /* \"contracts/orai.sol\":7873:7883  msg.sender */\n  caller\n    /* \"contracts/orai.sol\":7864:7884  balances[msg.sender] */\n  and\n  0x0\n  swap1\n  dup2\n  mstore\n    /* \"contracts/orai.sol\":7864:7872  balances */\n  0x1\n    /* \"contracts/orai.sol\":7864:7884  balances[msg.sender] */\n  0x20\n  mstore\n  0x40\n  swap1\n  keccak256\n    /* \"contracts/orai.sol\":7671:7681  86 * 10e23 */\n  0x4723355778d7d416000000\n    /* \"contracts/orai.sol\":7864:7898  balances[msg.sender] = totalSupply */\n  swap1\n  sstore\n    /* \"contracts/orai.sol\":7578:9836  contract OraiToken is StandardToken, ERC677Token {... */\n  dataSize(sub_0)\n  dup1\n  dataOffset(sub_0)\n  0x0\n  codecopy\n  0x0\n  return\nstop\n\nsub_0: assembly {\n        /* \"contracts/orai.sol\":7578:9836  contract OraiToken is StandardToken, ERC677Token {... */\n      mstore(0x40, 0x60)\n      jumpi(tag_1, lt(calldatasize, 0x4))\n      and(div(calldataload(0x0), 0x100000000000000000000000000000000000000000000000000000000), 0xffffffff)\n      0x6fdde03\n      dup2\n      eq\n      tag_2\n      jumpi\n      dup1\n      0x95ea7b3\n      eq\n      tag_3\n      jumpi\n      dup1\n      0x18160ddd\n      eq\n      tag_4\n      jumpi\n      dup1\n      0x23b872dd\n      eq\n      tag_5\n      jumpi\n      dup1\n      0x313ce567\n      eq\n      tag_6\n      jumpi\n      dup1\n      0x4000aea0\n      eq\n      tag_7\n      jumpi\n      dup1\n      0x66188463\n      eq\n      tag_8\n      jumpi\n      dup1\n      0x70a08231\n      eq\n      tag_9\n      jumpi\n      dup1\n      0x95d89b41\n      eq\n      tag_10\n      jumpi\n      dup1\n      0xa9059cbb\n      eq\n      tag_11\n      jumpi\n      dup1\n      0xd73dd623\n      eq\n      tag_12\n      jumpi\n      dup1\n      0xdd62ed3e\n      eq\n      tag_13\n      jumpi\n    tag_1:\n      0x0\n      dup1\n      revert\n        /* \"contracts/orai.sol\":7687:7734  string public constant name = \"Oraichain Token\" */\n    tag_2:\n      jumpi(tag_14, iszero(callvalue))\n      0x0\n      dup1\n      revert\n    tag_14:\n      tag_15\n      jump(tag_16)\n    tag_15:\n      mload(0x40)\n      0x20\n      dup1\n      dup3\n      mstore\n      dup2\n      swap1\n      dup2\n      add\n      dup4\n      dup2\n      dup2\n      mload\n      dup2\n      mstore\n      0x20\n      add\n      swap2\n      pop\n      dup1\n      mload\n      swap1\n      0x20\n      add\n      swap1\n      dup1\n      dup4\n      dup4\n        /* \"--CODEGEN--\":23:24   */\n      0x0\n        /* \"--CODEGEN--\":8:108   */\n    tag_17:\n        /* \"--CODEGEN--\":33:36   */\n      dup4\n        /* \"--CODEGEN--\":30:31   */\n      dup2\n        /* \"--CODEGEN--\":27:29   */\n      lt\n        /* \"--CODEGEN--\":8:108   */\n      iszero\n      tag_18\n      jumpi\n        /* \"--CODEGEN--\":99:100   */\n      dup1\n        /* \"--CODEGEN--\":94:97   */\n      dup3\n        /* \"--CODEGEN--\":90:93   */\n      add\n        /* \"--CODEGEN--\":84:89   */\n      mload\n        /* \"--CODEGEN--\":71:74   */\n      dup4\n      dup3\n      add\n        /* \"--CODEGEN--\":64:70   */\n      mstore\n        /* \"--CODEGEN--\":52:54   */\n      0x20\n        /* \"--CODEGEN--\":45:48   */\n      add\n        /* \"--CODEGEN--\":8:108   */\n      jump(tag_17)\n    tag_18:\n        /* \"--CODEGEN--\":12:26   */\n      pop\n        /* \"--CODEGEN--\":3:112   */\n      pop\n      pop\n      pop\n      swap1\n      pop\n      swap1\n      dup2\n      add\n      swap1\n      0x1f\n      and\n      dup1\n      iszero\n      tag_20\n      jumpi\n      dup1\n      dup3\n      sub\n      dup1\n      mload\n      0x1\n      dup4\n      0x20\n      sub\n      0x100\n      exp\n      sub\n      not\n      and\n      dup2\n      mstore\n      0x20\n      add\n      swap2\n      pop\n    tag_20:\n      pop\n      swap3\n      pop\n      pop\n      pop\n      mload(0x40)\n      dup1\n      swap2\n      sub\n      swap1\n      return\n        /* \"contracts/orai.sol\":9004:9185  function approve(address _spender, uint256 _value)... */\n    tag_3:\n      jumpi(tag_21, iszero(callvalue))\n      0x0\n      dup1\n      revert\n    tag_21:\n      tag_22\n      and(calldataload(0x4), sub(exp(0x2, 0xa0), 0x1))\n      calldataload(0x24)\n      jump(tag_23)\n    tag_22:\n      mload(0x40)\n      swap1\n      iszero\n      iszero\n      dup2\n      mstore\n      0x20\n      add\n      mload(0x40)\n      dup1\n      swap2\n      sub\n      swap1\n      return\n        /* \"contracts/orai.sol\":7633:7681  uint256 public constant totalSupply = 86 * 10e23 */\n    tag_4:\n      jumpi(tag_24, iszero(callvalue))\n      0x0\n      dup1\n      revert\n    tag_24:\n      tag_25\n      jump(tag_26)\n    tag_25:\n      mload(0x40)\n      swap1\n      dup2\n      mstore\n      0x20\n      add\n      mload(0x40)\n      dup1\n      swap2\n      sub\n      swap1\n      return\n        /* \"contracts/orai.sol\":9474:9674  function transferFrom(... */\n    tag_5:\n      jumpi(tag_27, iszero(callvalue))\n      0x0\n      dup1\n      revert\n    tag_27:\n      tag_22\n      sub(exp(0x2, 0xa0), 0x1)\n      calldataload(0x4)\n      dup2\n      and\n      swap1\n      calldataload(0x24)\n      and\n      calldataload(0x44)\n      jump(tag_29)\n        /* \"contracts/orai.sol\":7740:7775  uint8 public constant decimals = 18 */\n    tag_6:\n      jumpi(tag_30, iszero(callvalue))\n      0x0\n      dup1\n      revert\n    tag_30:\n      tag_31\n      jump(tag_32)\n    tag_31:\n      mload(0x40)\n      0xff\n      swap1\n      swap2\n      and\n      dup2\n      mstore\n      0x20\n      add\n      mload(0x40)\n      dup1\n      swap2\n      sub\n      swap1\n      return\n        /* \"contracts/orai.sol\":8202:8414  function transferAndCall(... */\n    tag_7:\n      jumpi(tag_33, iszero(callvalue))\n      0x0\n      dup1\n      revert\n    tag_33:\n      tag_22\n      0x4\n      dup1\n      calldataload\n      sub(exp(0x2, 0xa0), 0x1)\n      and\n      swap1\n      0x24\n      dup1\n      calldataload\n      swap2\n      swap1\n      0x64\n      swap1\n      calldataload(0x44)\n      swap1\n      dup2\n      add\n      swap1\n      dup4\n      add\n      calldataload\n      dup1\n      0x20\n      0x1f\n      dup3\n      add\n      dup2\n      swap1\n      div\n      dup2\n      mul\n      add\n      mload(0x40)\n      swap1\n      dup2\n      add\n      0x40\n      mstore\n      dup2\n      dup2\n      mstore\n      swap3\n      swap2\n      swap1\n      0x20\n      dup5\n      add\n      dup4\n      dup4\n      dup1\n      dup3\n      dup5\n      calldatacopy\n      pop\n      swap5\n      swap7\n      pop\n      tag_35\n      swap6\n      pop\n      pop\n      pop\n      pop\n      pop\n      pop\n      jump\n        /* \"contracts/orai.sol\":6005:6460  function decreaseApproval(address _spender, uint256 _subtractedValue)... */\n    tag_8:\n      jumpi(tag_36, iszero(callvalue))\n      0x0\n      dup1\n      revert\n    tag_36:\n      tag_22\n      and(calldataload(0x4), sub(exp(0x2, 0xa0), 0x1))\n      calldataload(0x24)\n      jump(tag_38)\n        /* \"contracts/orai.sol\":3182:3292  function balanceOf(address _owner) constant returns (uint256 balance) {... */\n    tag_9:\n      jumpi(tag_39, iszero(callvalue))\n      0x0\n      dup1\n      revert\n    tag_39:\n      tag_25\n      and(calldataload(0x4), sub(exp(0x2, 0xa0), 0x1))\n      jump(tag_41)\n        /* \"contracts/orai.sol\":7781:7819  string public constant symbol = \"ORAI\" */\n    tag_10:\n      jumpi(tag_42, iszero(callvalue))\n      0x0\n      dup1\n      revert\n    tag_42:\n      tag_15\n      jump(tag_44)\n        /* \"contracts/orai.sol\":8584:8760  function transfer(address _to, uint256 _value)... */\n    tag_11:\n      jumpi(tag_49, iszero(callvalue))\n      0x0\n      dup1\n      revert\n    tag_49:\n      tag_22\n      and(calldataload(0x4), sub(exp(0x2, 0xa0), 0x1))\n      calldataload(0x24)\n      jump(tag_51)\n        /* \"contracts/orai.sol\":5690:5999  function increaseApproval(address _spender, uint256 _addedValue)... */\n    tag_12:\n      jumpi(tag_52, iszero(callvalue))\n      0x0\n      dup1\n      revert\n    tag_52:\n      tag_22\n      and(calldataload(0x4), sub(exp(0x2, 0xa0), 0x1))\n      calldataload(0x24)\n      jump(tag_54)\n        /* \"contracts/orai.sol\":5278:5437  function allowance(address _owner, address _spender)... */\n    tag_13:\n      jumpi(tag_55, iszero(callvalue))\n      0x0\n      dup1\n      revert\n    tag_55:\n      tag_25\n      sub(exp(0x2, 0xa0), 0x1)\n      calldataload(0x4)\n      dup2\n      and\n      swap1\n      calldataload(0x24)\n      and\n      jump(tag_57)\n        /* \"contracts/orai.sol\":7687:7734  string public constant name = \"Oraichain Token\" */\n    tag_16:\n      0x40\n      dup1\n      mload\n      swap1\n      dup2\n      add\n      0x40\n      mstore\n      0xf\n      dup2\n      mstore\n      0x4f726169636861696e20546f6b656e0000000000000000000000000000000000\n      0x20\n      dup3\n      add\n      mstore\n      dup2\n      jump\t// out\n        /* \"contracts/orai.sol\":9004:9185  function approve(address _spender, uint256 _value)... */\n    tag_23:\n        /* \"contracts/orai.sol\":9120:9124  bool */\n      0x0\n        /* \"contracts/orai.sol\":9093:9101  _spender */\n      dup3\n      sub(exp(0x2, 0xa0), 0x1)\n        /* \"contracts/orai.sol\":9760:9784  _recipient != address(0) */\n      dup2\n      and\n      iszero\n      dup1\n      iszero\n      swap1\n        /* \"contracts/orai.sol\":9760:9815  _recipient != address(0) && _recipient != address(this) */\n      tag_59\n      jumpi\n      pop\n        /* \"contracts/orai.sol\":9810:9814  this */\n      address\n      sub(exp(0x2, 0xa0), 0x1)\n        /* \"contracts/orai.sol\":9788:9815  _recipient != address(this) */\n      and\n        /* \"contracts/orai.sol\":9788:9798  _recipient */\n      dup2\n      sub(exp(0x2, 0xa0), 0x1)\n        /* \"contracts/orai.sol\":9788:9815  _recipient != address(this) */\n      and\n      eq\n      iszero\n        /* \"contracts/orai.sol\":9760:9815  _recipient != address(0) && _recipient != address(this) */\n    tag_59:\n        /* \"contracts/orai.sol\":9752:9816  require(_recipient != address(0) && _recipient != address(this)) */\n      iszero\n      iszero\n      tag_60\n      jumpi\n      0x0\n      dup1\n      revert\n    tag_60:\n        /* \"contracts/orai.sol\":9147:9178  super.approve(_spender, _value) */\n      tag_62\n        /* \"contracts/orai.sol\":9161:9169  _spender */\n      dup5\n        /* \"contracts/orai.sol\":9171:9177  _value */\n      dup5\n        /* \"contracts/orai.sol\":9147:9160  super.approve */\n      tag_63\n        /* \"contracts/orai.sol\":9147:9178  super.approve(_spender, _value) */\n      jump\t// in\n    tag_62:\n        /* \"contracts/orai.sol\":9140:9178  return super.approve(_spender, _value) */\n      swap5\n        /* \"contracts/orai.sol\":9004:9185  function approve(address _spender, uint256 _value)... */\n      swap4\n      pop\n      pop\n      pop\n      pop\n      jump\t// out\n        /* \"contracts/orai.sol\":7633:7681  uint256 public constant totalSupply = 86 * 10e23 */\n    tag_26:\n        /* \"contracts/orai.sol\":7671:7681  86 * 10e23 */\n      0x4723355778d7d416000000\n        /* \"contracts/orai.sol\":7633:7681  uint256 public constant totalSupply = 86 * 10e23 */\n      dup2\n      jump\t// out\n        /* \"contracts/orai.sol\":9474:9674  function transferFrom(... */\n    tag_29:\n        /* \"contracts/orai.sol\":9606:9610  bool */\n      0x0\n        /* \"contracts/orai.sol\":9592:9595  _to */\n      dup3\n      sub(exp(0x2, 0xa0), 0x1)\n        /* \"contracts/orai.sol\":9760:9784  _recipient != address(0) */\n      dup2\n      and\n      iszero\n      dup1\n      iszero\n      swap1\n        /* \"contracts/orai.sol\":9760:9815  _recipient != address(0) && _recipient != address(this) */\n      tag_65\n      jumpi\n      pop\n        /* \"contracts/orai.sol\":9810:9814  this */\n      address\n      sub(exp(0x2, 0xa0), 0x1)\n        /* \"contracts/orai.sol\":9788:9815  _recipient != address(this) */\n      and\n        /* \"contracts/orai.sol\":9788:9798  _recipient */\n      dup2\n      sub(exp(0x2, 0xa0), 0x1)\n        /* \"contracts/orai.sol\":9788:9815  _recipient != address(this) */\n      and\n      eq\n      iszero\n        /* \"contracts/orai.sol\":9760:9815  _recipient != address(0) && _recipient != address(this) */\n    tag_65:\n        /* \"contracts/orai.sol\":9752:9816  require(_recipient != address(0) && _recipient != address(this)) */\n      iszero\n      iszero\n      tag_66\n      jumpi\n      0x0\n      dup1\n      revert\n    tag_66:\n        /* \"contracts/orai.sol\":9629:9667  super.transferFrom(_from, _to, _value) */\n      tag_68\n        /* \"contracts/orai.sol\":9648:9653  _from */\n      dup6\n        /* \"contracts/orai.sol\":9655:9658  _to */\n      dup6\n        /* \"contracts/orai.sol\":9660:9666  _value */\n      dup6\n        /* \"contracts/orai.sol\":9629:9647  super.transferFrom */\n      tag_69\n        /* \"contracts/orai.sol\":9629:9667  super.transferFrom(_from, _to, _value) */\n      jump\t// in\n    tag_68:\n        /* \"contracts/orai.sol\":9622:9667  return super.transferFrom(_from, _to, _value) */\n      swap6\n        /* \"contracts/orai.sol\":9474:9674  function transferFrom(... */\n      swap5\n      pop\n      pop\n      pop\n      pop\n      pop\n      jump\t// out\n        /* \"contracts/orai.sol\":7740:7775  uint8 public constant decimals = 18 */\n    tag_32:\n        /* \"contracts/orai.sol\":7773:7775  18 */\n      0x12\n        /* \"contracts/orai.sol\":7740:7775  uint8 public constant decimals = 18 */\n      dup2\n      jump\t// out\n        /* \"contracts/orai.sol\":8202:8414  function transferAndCall(... */\n    tag_35:\n        /* \"contracts/orai.sol\":8335:8347  bool success */\n      0x0\n        /* \"contracts/orai.sol\":8321:8324  _to */\n      dup4\n      sub(exp(0x2, 0xa0), 0x1)\n        /* \"contracts/orai.sol\":9760:9784  _recipient != address(0) */\n      dup2\n      and\n      iszero\n      dup1\n      iszero\n      swap1\n        /* \"contracts/orai.sol\":9760:9815  _recipient != address(0) && _recipient != address(this) */\n      tag_71\n      jumpi\n      pop\n        /* \"contracts/orai.sol\":9810:9814  this */\n      address\n      sub(exp(0x2, 0xa0), 0x1)\n        /* \"contracts/orai.sol\":9788:9815  _recipient != address(this) */\n      and\n        /* \"contracts/orai.sol\":9788:9798  _recipient */\n      dup2\n      sub(exp(0x2, 0xa0), 0x1)\n        /* \"contracts/orai.sol\":9788:9815  _recipient != address(this) */\n      and\n      eq\n      iszero\n        /* \"contracts/orai.sol\":9760:9815  _recipient != address(0) && _recipient != address(this) */\n    tag_71:\n        /* \"contracts/orai.sol\":9752:9816  require(_recipient != address(0) && _recipient != address(this)) */\n      iszero\n      iszero\n      tag_72\n      jumpi\n      0x0\n      dup1\n      revert\n    tag_72:\n        /* \"contracts/orai.sol\":8366:8407  super.transferAndCall(_to, _value, _data) */\n      tag_68\n        /* \"contracts/orai.sol\":8388:8391  _to */\n      dup6\n        /* \"contracts/orai.sol\":8393:8399  _value */\n      dup6\n        /* \"contracts/orai.sol\":8401:8406  _data */\n      dup6\n        /* \"contracts/orai.sol\":8366:8387  super.transferAndCall */\n      tag_75\n        /* \"contracts/orai.sol\":8366:8407  super.transferAndCall(_to, _value, _data) */\n      jump\t// in\n        /* \"contracts/orai.sol\":6005:6460  function decreaseApproval(address _spender, uint256 _subtractedValue)... */\n    tag_38:\n      sub(exp(0x2, 0xa0), 0x1)\n        /* \"contracts/orai.sol\":6147:6157  msg.sender */\n      caller\n        /* \"contracts/orai.sol\":6139:6158  allowed[msg.sender] */\n      dup2\n      and\n        /* \"contracts/orai.sol\":6092:6104  bool success */\n      0x0\n        /* \"contracts/orai.sol\":6139:6158  allowed[msg.sender] */\n      swap1\n      dup2\n      mstore\n        /* \"contracts/orai.sol\":6139:6146  allowed */\n      0x2\n        /* \"contracts/orai.sol\":6139:6158  allowed[msg.sender] */\n      0x20\n      swap1\n      dup2\n      mstore\n      0x40\n      dup1\n      dup4\n      keccak256\n        /* \"contracts/orai.sol\":6139:6168  allowed[msg.sender][_spender] */\n      swap4\n      dup7\n      and\n      dup4\n      mstore\n      swap3\n      swap1\n      mstore\n      swap1\n      dup2\n      keccak256\n      sload\n        /* \"contracts/orai.sol\":6182:6209  _subtractedValue > oldValue */\n      dup1\n      dup4\n      gt\n        /* \"contracts/orai.sol\":6178:6362  if (_subtractedValue > oldValue) {... */\n      iszero\n      tag_77\n      jumpi\n      sub(exp(0x2, 0xa0), 0x1)\n        /* \"contracts/orai.sol\":6233:6243  msg.sender */\n      caller\n        /* \"contracts/orai.sol\":6225:6244  allowed[msg.sender] */\n      dup2\n      and\n        /* \"contracts/orai.sol\":6257:6258  0 */\n      0x0\n        /* \"contracts/orai.sol\":6225:6244  allowed[msg.sender] */\n      swap1\n      dup2\n      mstore\n        /* \"contracts/orai.sol\":6225:6232  allowed */\n      0x2\n        /* \"contracts/orai.sol\":6225:6244  allowed[msg.sender] */\n      0x20\n      swap1\n      dup2\n      mstore\n      0x40\n      dup1\n      dup4\n      keccak256\n        /* \"contracts/orai.sol\":6225:6254  allowed[msg.sender][_spender] */\n      swap4\n      dup9\n      and\n      dup4\n      mstore\n      swap3\n      swap1\n      mstore\n      swap1\n      dup2\n      keccak256\n        /* \"contracts/orai.sol\":6225:6258  allowed[msg.sender][_spender] = 0 */\n      sstore\n        /* \"contracts/orai.sol\":6178:6362  if (_subtractedValue > oldValue) {... */\n      jump(tag_78)\n    tag_77:\n        /* \"contracts/orai.sol\":6321:6351  oldValue.sub(_subtractedValue) */\n      tag_79\n        /* \"contracts/orai.sol\":6321:6329  oldValue */\n      dup2\n        /* \"contracts/orai.sol\":6334:6350  _subtractedValue */\n      dup5\n        /* \"contracts/orai.sol\":6321:6351  oldValue.sub(_subtractedValue) */\n      0xffffffff\n        /* \"contracts/orai.sol\":6321:6333  oldValue.sub */\n      tag_80\n        /* \"contracts/orai.sol\":6321:6351  oldValue.sub(_subtractedValue) */\n      and\n      jump\t// in\n    tag_79:\n      sub(exp(0x2, 0xa0), 0x1)\n        /* \"contracts/orai.sol\":6297:6307  msg.sender */\n      caller\n        /* \"contracts/orai.sol\":6289:6308  allowed[msg.sender] */\n      dup2\n      and\n      0x0\n      swap1\n      dup2\n      mstore\n        /* \"contracts/orai.sol\":6289:6296  allowed */\n      0x2\n        /* \"contracts/orai.sol\":6289:6308  allowed[msg.sender] */\n      0x20\n      swap1\n      dup2\n      mstore\n      0x40\n      dup1\n      dup4\n      keccak256\n        /* \"contracts/orai.sol\":6289:6318  allowed[msg.sender][_spender] */\n      swap4\n      dup10\n      and\n      dup4\n      mstore\n      swap3\n      swap1\n      mstore\n      keccak256\n        /* \"contracts/orai.sol\":6289:6351  allowed[msg.sender][_spender] = oldValue.sub(_subtractedValue) */\n      sstore\n        /* \"contracts/orai.sol\":6178:6362  if (_subtractedValue > oldValue) {... */\n    tag_78:\n      sub(exp(0x2, 0xa0), 0x1)\n        /* \"contracts/orai.sol\":6380:6390  msg.sender */\n      caller\n        /* \"contracts/orai.sol\":6371:6432  Approval(msg.sender, _spender, allowed[msg.sender][_spender]) */\n      dup2\n      and\n        /* \"contracts/orai.sol\":6402:6421  allowed[msg.sender] */\n      0x0\n      dup2\n      dup2\n      mstore\n        /* \"contracts/orai.sol\":6402:6409  allowed */\n      0x2\n        /* \"contracts/orai.sol\":6402:6421  allowed[msg.sender] */\n      0x20\n      swap1\n      dup2\n      mstore\n      0x40\n      dup1\n      dup4\n      keccak256\n        /* \"contracts/orai.sol\":6371:6432  Approval(msg.sender, _spender, allowed[msg.sender][_spender]) */\n      swap5\n      dup10\n      and\n        /* \"contracts/orai.sol\":6402:6431  allowed[msg.sender][_spender] */\n      dup1\n      dup5\n      mstore\n      swap5\n      swap1\n      swap2\n      mstore\n      swap1\n      dup2\n      swap1\n      keccak256\n      sload\n        /* \"contracts/orai.sol\":6371:6432  Approval(msg.sender, _spender, allowed[msg.sender][_spender]) */\n      0x8c5be1e5ebec7d5bd14f71427d1e84f3dd0314c0f7b2291e5b200ac8c7c3b925\n      swap2\n      mload\n      swap1\n      dup2\n      mstore\n      0x20\n      add\n      mload(0x40)\n      dup1\n      swap2\n      sub\n      swap1\n      log3\n      pop\n        /* \"contracts/orai.sol\":6449:6453  true */\n      0x1\n      swap4\n        /* \"contracts/orai.sol\":6005:6460  function decreaseApproval(address _spender, uint256 _subtractedValue)... */\n      swap3\n      pop\n      pop\n      pop\n      jump\t// out\n        /* \"contracts/orai.sol\":3182:3292  function balanceOf(address _owner) constant returns (uint256 balance) {... */\n    tag_41:\n      sub(exp(0x2, 0xa0), 0x1)\n        /* \"contracts/orai.sol\":3269:3285  balances[_owner] */\n      and\n        /* \"contracts/orai.sol\":3235:3250  uint256 balance */\n      0x0\n        /* \"contracts/orai.sol\":3269:3285  balances[_owner] */\n      swap1\n      dup2\n      mstore\n        /* \"contracts/orai.sol\":3269:3277  balances */\n      0x1\n        /* \"contracts/orai.sol\":3269:3285  balances[_owner] */\n      0x20\n      mstore\n      0x40\n      swap1\n      keccak256\n      sload\n      swap1\n        /* \"contracts/orai.sol\":3182:3292  function balanceOf(address _owner) constant returns (uint256 balance) {... */\n      jump\t// out\n        /* \"contracts/orai.sol\":7781:7819  string public constant symbol = \"ORAI\" */\n    tag_44:\n      0x40\n      dup1\n      mload\n      swap1\n      dup2\n      add\n      0x40\n      mstore\n      0x4\n      dup2\n      mstore\n      0x4f52414900000000000000000000000000000000000000000000000000000000\n      0x20\n      dup3\n      add\n      mstore\n      dup2\n      jump\t// out\n        /* \"contracts/orai.sol\":8584:8760  function transfer(address _to, uint256 _value)... */\n    tag_51:\n        /* \"contracts/orai.sol\":8691:8703  bool success */\n      0x0\n        /* \"contracts/orai.sol\":8669:8672  _to */\n      dup3\n      sub(exp(0x2, 0xa0), 0x1)\n        /* \"contracts/orai.sol\":9760:9784  _recipient != address(0) */\n      dup2\n      and\n      iszero\n      dup1\n      iszero\n      swap1\n        /* \"contracts/orai.sol\":9760:9815  _recipient != address(0) && _recipient != address(this) */\n      tag_83\n      jumpi\n      pop\n        /* \"contracts/orai.sol\":9810:9814  this */\n      address\n      sub(exp(0x2, 0xa0), 0x1)\n        /* \"contracts/orai.sol\":9788:9815  _recipient != address(this) */\n      and\n        /* \"contracts/orai.sol\":9788:9798  _recipient */\n      dup2\n      sub(exp(0x2, 0xa0), 0x1)\n        /* \"contracts/orai.sol\":9788:9815  _recipient != address(this) */\n      and\n      eq\n      iszero\n        /* \"contracts/orai.sol\":9760:9815  _recipient != address(0) && _recipient != address(this) */\n    tag_83:\n        /* \"contracts/orai.sol\":9752:9816  require(_recipient != address(0) && _recipient != address(this)) */\n      iszero\n      iszero\n      tag_84\n      jumpi\n      0x0\n      dup1\n      revert\n    tag_84:\n        /* \"contracts/orai.sol\":8726:8753  super.transfer(_to, _value) */\n      tag_62\n        /* \"contracts/orai.sol\":8741:8744  _to */\n      dup5\n        /* \"contracts/orai.sol\":8746:8752  _value */\n      dup5\n        /* \"contracts/orai.sol\":8726:8740  super.transfer */\n      tag_87\n        /* \"contracts/orai.sol\":8726:8753  super.transfer(_to, _value) */\n      jump\t// in\n        /* \"contracts/orai.sol\":5690:5999  function increaseApproval(address _spender, uint256 _addedValue)... */\n    tag_54:\n      sub(exp(0x2, 0xa0), 0x1)\n        /* \"contracts/orai.sol\":5840:5850  msg.sender */\n      caller\n        /* \"contracts/orai.sol\":5832:5851  allowed[msg.sender] */\n      dup2\n      and\n        /* \"contracts/orai.sol\":5772:5784  bool success */\n      0x0\n        /* \"contracts/orai.sol\":5832:5851  allowed[msg.sender] */\n      swap1\n      dup2\n      mstore\n        /* \"contracts/orai.sol\":5832:5839  allowed */\n      0x2\n        /* \"contracts/orai.sol\":5832:5851  allowed[msg.sender] */\n      0x20\n      swap1\n      dup2\n      mstore\n      0x40\n      dup1\n      dup4\n      keccak256\n        /* \"contracts/orai.sol\":5832:5861  allowed[msg.sender][_spender] */\n      swap4\n      dup7\n      and\n      dup4\n      mstore\n      swap3\n      swap1\n      mstore\n      swap1\n      dup2\n      keccak256\n      sload\n        /* \"contracts/orai.sol\":5832:5900  allowed[msg.sender][_spender].add(... */\n      tag_89\n      swap1\n        /* \"contracts/orai.sol\":5879:5890  _addedValue */\n      dup4\n        /* \"contracts/orai.sol\":5832:5900  allowed[msg.sender][_spender].add(... */\n      0xffffffff\n        /* \"contracts/orai.sol\":5832:5865  allowed[msg.sender][_spender].add */\n      tag_90\n        /* \"contracts/orai.sol\":5832:5900  allowed[msg.sender][_spender].add(... */\n      and\n      jump\t// in\n    tag_89:\n      sub(exp(0x2, 0xa0), 0x1)\n        /* \"contracts/orai.sol\":5808:5818  msg.sender */\n      caller\n        /* \"contracts/orai.sol\":5800:5819  allowed[msg.sender] */\n      dup2\n      and\n      0x0\n      dup2\n      dup2\n      mstore\n        /* \"contracts/orai.sol\":5800:5807  allowed */\n      0x2\n        /* \"contracts/orai.sol\":5800:5819  allowed[msg.sender] */\n      0x20\n      swap1\n      dup2\n      mstore\n      0x40\n      dup1\n      dup4\n      keccak256\n        /* \"contracts/orai.sol\":5800:5829  allowed[msg.sender][_spender] */\n      swap5\n      dup10\n      and\n      dup1\n      dup5\n      mstore\n      swap5\n      swap1\n      swap2\n      mstore\n      swap1\n      dup2\n      swap1\n      keccak256\n        /* \"contracts/orai.sol\":5800:5900  allowed[msg.sender][_spender] = allowed[msg.sender][_spender].add(... */\n      dup5\n      swap1\n      sstore\n        /* \"contracts/orai.sol\":5800:5829  allowed[msg.sender][_spender] */\n      swap2\n      swap3\n        /* \"contracts/orai.sol\":5800:5819  allowed[msg.sender] */\n      swap1\n      swap2\n        /* \"contracts/orai.sol\":5910:5971  Approval(msg.sender, _spender, allowed[msg.sender][_spender]) */\n      0x8c5be1e5ebec7d5bd14f71427d1e84f3dd0314c0f7b2291e5b200ac8c7c3b925\n      swap2\n        /* \"contracts/orai.sol\":5800:5900  allowed[msg.sender][_spender] = allowed[msg.sender][_spender].add(... */\n      swap1\n        /* \"contracts/orai.sol\":5910:5971  Approval(msg.sender, _spender, allowed[msg.sender][_spender]) */\n      mload\n      swap1\n      dup2\n      mstore\n      0x20\n      add\n      mload(0x40)\n      dup1\n      swap2\n      sub\n      swap1\n      log3\n      pop\n        /* \"contracts/orai.sol\":5988:5992  true */\n      0x1\n        /* \"contracts/orai.sol\":5690:5999  function increaseApproval(address _spender, uint256 _addedValue)... */\n      swap3\n      swap2\n      pop\n      pop\n      jump\t// out\n        /* \"contracts/orai.sol\":5278:5437  function allowance(address _owner, address _spender)... */\n    tag_57:\n      sub(exp(0x2, 0xa0), 0x1)\n        /* \"contracts/orai.sol\":5405:5420  allowed[_owner] */\n      swap2\n      dup3\n      and\n        /* \"contracts/orai.sol\":5365:5382  uint256 remaining */\n      0x0\n        /* \"contracts/orai.sol\":5405:5420  allowed[_owner] */\n      swap1\n      dup2\n      mstore\n        /* \"contracts/orai.sol\":5405:5412  allowed */\n      0x2\n        /* \"contracts/orai.sol\":5405:5420  allowed[_owner] */\n      0x20\n      swap1\n      dup2\n      mstore\n      0x40\n      dup1\n      dup4\n      keccak256\n        /* \"contracts/orai.sol\":5405:5430  allowed[_owner][_spender] */\n      swap4\n      swap1\n      swap5\n      and\n      dup3\n      mstore\n      swap2\n      swap1\n      swap2\n      mstore\n      keccak256\n      sload\n      swap1\n        /* \"contracts/orai.sol\":5278:5437  function allowance(address _owner, address _spender)... */\n      jump\t// out\n        /* \"contracts/orai.sol\":4755:4945  function approve(address _spender, uint256 _value) returns (bool) {... */\n    tag_63:\n      sub(exp(0x2, 0xa0), 0x1)\n        /* \"contracts/orai.sol\":4839:4849  msg.sender */\n      caller\n        /* \"contracts/orai.sol\":4831:4850  allowed[msg.sender] */\n      dup2\n      and\n        /* \"contracts/orai.sol\":4815:4819  bool */\n      0x0\n        /* \"contracts/orai.sol\":4831:4850  allowed[msg.sender] */\n      dup2\n      dup2\n      mstore\n        /* \"contracts/orai.sol\":4831:4838  allowed */\n      0x2\n        /* \"contracts/orai.sol\":4831:4850  allowed[msg.sender] */\n      0x20\n      swap1\n      dup2\n      mstore\n      0x40\n      dup1\n      dup4\n      keccak256\n        /* \"contracts/orai.sol\":4831:4860  allowed[msg.sender][_spender] */\n      swap5\n      dup8\n      and\n      dup1\n      dup5\n      mstore\n      swap5\n      swap1\n      swap2\n      mstore\n      dup1\n      dup3\n      keccak256\n        /* \"contracts/orai.sol\":4831:4869  allowed[msg.sender][_spender] = _value */\n      dup6\n      swap1\n      sstore\n        /* \"contracts/orai.sol\":4815:4819  bool */\n      swap1\n      swap3\n        /* \"contracts/orai.sol\":4831:4860  allowed[msg.sender][_spender] */\n      swap2\n        /* \"contracts/orai.sol\":4831:4850  allowed[msg.sender] */\n      swap1\n        /* \"contracts/orai.sol\":4879:4917  Approval(msg.sender, _spender, _value) */\n      0x8c5be1e5ebec7d5bd14f71427d1e84f3dd0314c0f7b2291e5b200ac8c7c3b925\n      swap1\n        /* \"contracts/orai.sol\":4863:4869  _value */\n      dup6\n      swap1\n        /* \"contracts/orai.sol\":4879:4917  Approval(msg.sender, _spender, _value) */\n      mload\n      swap1\n      dup2\n      mstore\n      0x20\n      add\n      mload(0x40)\n      dup1\n      swap2\n      sub\n      swap1\n      log3\n      pop\n        /* \"contracts/orai.sol\":4934:4938  true */\n      0x1\n        /* \"contracts/orai.sol\":4755:4945  function approve(address _spender, uint256 _value) returns (bool) {... */\n      swap3\n      swap2\n      pop\n      pop\n      jump\t// out\n        /* \"contracts/orai.sol\":3958:4511  function transferFrom(... */\n    tag_69:\n      sub(exp(0x2, 0xa0), 0x1)\n        /* \"contracts/orai.sol\":4096:4110  allowed[_from] */\n      dup1\n      dup5\n      and\n        /* \"contracts/orai.sol\":4063:4067  bool */\n      0x0\n        /* \"contracts/orai.sol\":4096:4110  allowed[_from] */\n      dup2\n      dup2\n      mstore\n        /* \"contracts/orai.sol\":4096:4103  allowed */\n      0x2\n        /* \"contracts/orai.sol\":4096:4110  allowed[_from] */\n      0x20\n      swap1\n      dup2\n      mstore\n      0x40\n      dup1\n      dup4\n      keccak256\n        /* \"contracts/orai.sol\":4111:4121  msg.sender */\n      caller\n        /* \"contracts/orai.sol\":4096:4122  allowed[_from][msg.sender] */\n      swap1\n      swap6\n      and\n      dup4\n      mstore\n      swap4\n      dup2\n      mstore\n      dup4\n      dup3\n      keccak256\n      sload\n        /* \"contracts/orai.sol\":4306:4321  balances[_from] */\n      swap3\n      dup3\n      mstore\n        /* \"contracts/orai.sol\":4306:4314  balances */\n      0x1\n        /* \"contracts/orai.sol\":4306:4321  balances[_from] */\n      swap1\n      mstore\n      swap2\n      dup3\n      keccak256\n      sload\n        /* \"contracts/orai.sol\":4306:4333  balances[_from].sub(_value) */\n      tag_94\n      swap1\n        /* \"contracts/orai.sol\":4326:4332  _value */\n      dup5\n        /* \"contracts/orai.sol\":4306:4333  balances[_from].sub(_value) */\n      0xffffffff\n        /* \"contracts/orai.sol\":4306:4325  balances[_from].sub */\n      tag_80\n        /* \"contracts/orai.sol\":4306:4333  balances[_from].sub(_value) */\n      and\n      jump\t// in\n    tag_94:\n      sub(exp(0x2, 0xa0), 0x1)\n        /* \"contracts/orai.sol\":4288:4303  balances[_from] */\n      dup1\n      dup8\n      and\n      0x0\n      swap1\n      dup2\n      mstore\n        /* \"contracts/orai.sol\":4288:4296  balances */\n      0x1\n        /* \"contracts/orai.sol\":4288:4303  balances[_from] */\n      0x20\n      mstore\n      0x40\n      dup1\n      dup3\n      keccak256\n        /* \"contracts/orai.sol\":4288:4333  balances[_from] = balances[_from].sub(_value) */\n      swap4\n      swap1\n      swap4\n      sstore\n        /* \"contracts/orai.sol\":4359:4372  balances[_to] */\n      swap1\n      dup7\n      and\n      dup2\n      mstore\n      keccak256\n      sload\n        /* \"contracts/orai.sol\":4359:4384  balances[_to].add(_value) */\n      tag_95\n      swap1\n        /* \"contracts/orai.sol\":4377:4383  _value */\n      dup5\n        /* \"contracts/orai.sol\":4359:4384  balances[_to].add(_value) */\n      0xffffffff\n        /* \"contracts/orai.sol\":4359:4376  balances[_to].add */\n      tag_90\n        /* \"contracts/orai.sol\":4359:4384  balances[_to].add(_value) */\n      and\n      jump\t// in\n    tag_95:\n      sub(exp(0x2, 0xa0), 0x1)\n        /* \"contracts/orai.sol\":4343:4356  balances[_to] */\n      dup6\n      and\n      0x0\n      swap1\n      dup2\n      mstore\n        /* \"contracts/orai.sol\":4343:4351  balances */\n      0x1\n        /* \"contracts/orai.sol\":4343:4356  balances[_to] */\n      0x20\n      mstore\n      0x40\n      swap1\n      keccak256\n        /* \"contracts/orai.sol\":4343:4384  balances[_to] = balances[_to].add(_value) */\n      sstore\n        /* \"contracts/orai.sol\":4423:4445  _allowance.sub(_value) */\n      tag_96\n        /* \"contracts/orai.sol\":4423:4433  _allowance */\n      dup2\n        /* \"contracts/orai.sol\":4438:4444  _value */\n      dup5\n        /* \"contracts/orai.sol\":4423:4445  _allowance.sub(_value) */\n      0xffffffff\n        /* \"contracts/orai.sol\":4423:4437  _allowance.sub */\n      tag_80\n        /* \"contracts/orai.sol\":4423:4445  _allowance.sub(_value) */\n      and\n      jump\t// in\n    tag_96:\n      sub(exp(0x2, 0xa0), 0x1)\n        /* \"contracts/orai.sol\":4394:4408  allowed[_from] */\n      dup1\n      dup8\n      and\n      0x0\n      dup2\n      dup2\n      mstore\n        /* \"contracts/orai.sol\":4394:4401  allowed */\n      0x2\n        /* \"contracts/orai.sol\":4394:4408  allowed[_from] */\n      0x20\n      swap1\n      dup2\n      mstore\n      0x40\n      dup1\n      dup4\n      keccak256\n        /* \"contracts/orai.sol\":4409:4419  msg.sender */\n      caller\n        /* \"contracts/orai.sol\":4394:4420  allowed[_from][msg.sender] */\n      dup7\n      and\n      dup5\n      mstore\n      swap1\n      swap2\n      mstore\n      swap1\n      dup2\n      swap1\n      keccak256\n        /* \"contracts/orai.sol\":4394:4445  allowed[_from][msg.sender] = _allowance.sub(_value) */\n      swap4\n      swap1\n      swap4\n      sstore\n        /* \"contracts/orai.sol\":4455:4483  Transfer(_from, _to, _value) */\n      swap1\n      dup7\n      and\n      swap2\n      0xddf252ad1be2c89b69c2b068fc378daa952ba7f163c4a11628f55a4df523b3ef\n      swap1\n        /* \"contracts/orai.sol\":4476:4482  _value */\n      dup7\n      swap1\n        /* \"contracts/orai.sol\":4455:4483  Transfer(_from, _to, _value) */\n      mload\n      swap1\n      dup2\n      mstore\n      0x20\n      add\n      mload(0x40)\n      dup1\n      swap2\n      sub\n      swap1\n      log3\n      pop\n        /* \"contracts/orai.sol\":4500:4504  true */\n      0x1\n      swap5\n        /* \"contracts/orai.sol\":3958:4511  function transferFrom(... */\n      swap4\n      pop\n      pop\n      pop\n      pop\n      jump\t// out\n        /* \"contracts/orai.sol\":6790:7123  function transferAndCall(... */\n    tag_75:\n        /* \"contracts/orai.sol\":6903:6915  bool success */\n      0x0\n        /* \"contracts/orai.sol\":6927:6954  super.transfer(_to, _value) */\n      tag_98\n        /* \"contracts/orai.sol\":6942:6945  _to */\n      dup5\n        /* \"contracts/orai.sol\":6947:6953  _value */\n      dup5\n        /* \"contracts/orai.sol\":6927:6941  super.transfer */\n      tag_87\n        /* \"contracts/orai.sol\":6927:6954  super.transfer(_to, _value) */\n      jump\t// in\n    tag_98:\n      pop\n        /* \"contracts/orai.sol\":6985:6988  _to */\n      dup4\n      sub(exp(0x2, 0xa0), 0x1)\n        /* \"contracts/orai.sol\":6964:7004  Transfer(msg.sender, _to, _value, _data) */\n      and\n        /* \"contracts/orai.sol\":6973:6983  msg.sender */\n      caller\n      sub(exp(0x2, 0xa0), 0x1)\n        /* \"contracts/orai.sol\":6964:7004  Transfer(msg.sender, _to, _value, _data) */\n      and\n      0xe19260aff97b920c7df27010903aeb9c8d2be5d310a2c67824cf3f15396e4c16\n        /* \"contracts/orai.sol\":6990:6996  _value */\n      dup6\n        /* \"contracts/orai.sol\":6998:7003  _data */\n      dup6\n        /* \"contracts/orai.sol\":6964:7004  Transfer(msg.sender, _to, _value, _data) */\n      mload(0x40)\n      dup3\n      dup2\n      mstore\n      0x40\n      0x20\n      dup3\n      add\n      dup2\n      dup2\n      mstore\n      swap1\n      dup3\n      add\n      dup4\n      dup2\n      dup2\n      mload\n      dup2\n      mstore\n      0x20\n      add\n      swap2\n      pop\n      dup1\n      mload\n      swap1\n      0x20\n      add\n      swap1\n      dup1\n      dup4\n      dup4\n        /* \"--CODEGEN--\":23:24   */\n      0x0\n        /* \"--CODEGEN--\":8:108   */\n    tag_99:\n        /* \"--CODEGEN--\":33:36   */\n      dup4\n        /* \"--CODEGEN--\":30:31   */\n      dup2\n        /* \"--CODEGEN--\":27:29   */\n      lt\n        /* \"--CODEGEN--\":8:108   */\n      iszero\n      tag_100\n      jumpi\n        /* \"--CODEGEN--\":99:100   */\n      dup1\n        /* \"--CODEGEN--\":94:97   */\n      dup3\n        /* \"--CODEGEN--\":90:93   */\n      add\n        /* \"--CODEGEN--\":84:89   */\n      mload\n        /* \"--CODEGEN--\":71:74   */\n      dup4\n      dup3\n      add\n        /* \"--CODEGEN--\":64:70   */\n      mstore\n        /* \"--CODEGEN--\":52:54   */\n      0x20\n        /* \"--CODEGEN--\":45:48   */\n      add\n        /* \"--CODEGEN--\":8:108   */\n      jump(tag_99)\n    tag_100:\n        /* \"--CODEGEN--\":12:26   */\n      pop\n        /* \"--CODEGEN--\":3:112   */\n      pop\n      pop\n      pop\n      swap1\n      pop\n      swap1\n      dup2\n      add\n      swap1\n      0x1f\n      and\n      dup1\n      iszero\n      tag_102\n      jumpi\n      dup1\n      dup3\n      sub\n      dup1\n      mload\n      0x1\n      dup4\n      0x20\n      sub\n      0x100\n      exp\n      sub\n      not\n      and\n      dup2\n      mstore\n      0x20\n      add\n      swap2\n      pop\n    tag_102:\n      pop\n      swap4\n      pop\n      pop\n      pop\n      pop\n      mload(0x40)\n      dup1\n      swap2\n      sub\n      swap1\n      log3\n        /* \"contracts/orai.sol\":7018:7033  isContract(_to) */\n      tag_103\n        /* \"contracts/orai.sol\":7029:7032  _to */\n      dup5\n        /* \"contracts/orai.sol\":7018:7028  isContract */\n      tag_104\n        /* \"contracts/orai.sol\":7018:7033  isContract(_to) */\n      jump\t// in\n    tag_103:\n        /* \"contracts/orai.sol\":7014:7096  if (isContract(_to)) {... */\n      iszero\n      tag_106\n      jumpi\n        /* \"contracts/orai.sol\":7049:7085  contractFallback(_to, _value, _data) */\n      tag_106\n        /* \"contracts/orai.sol\":7066:7069  _to */\n      dup5\n        /* \"contracts/orai.sol\":7071:7077  _value */\n      dup5\n        /* \"contracts/orai.sol\":7079:7084  _data */\n      dup5\n        /* \"contracts/orai.sol\":7049:7065  contractFallback */\n      tag_107\n        /* \"contracts/orai.sol\":7049:7085  contractFallback(_to, _value, _data) */\n      jump\t// in\n    tag_106:\n      pop\n        /* \"contracts/orai.sol\":7112:7116  true */\n      0x1\n        /* \"contracts/orai.sol\":6790:7123  function transferAndCall(... */\n      swap4\n      swap3\n      pop\n      pop\n      pop\n      jump\t// out\n        /* \"contracts/orai.sol\":735:859  function sub(uint256 a, uint256 b) internal constant returns (uint256) {... */\n    tag_80:\n        /* \"contracts/orai.sol\":797:804  uint256 */\n      0x0\n        /* \"contracts/orai.sol\":823:829  b <= a */\n      dup3\n      dup3\n      gt\n      iszero\n        /* \"contracts/orai.sol\":816:830  assert(b <= a) */\n      tag_109\n      jumpi\n      invalid\n    tag_109:\n      pop\n        /* \"contracts/orai.sol\":847:852  a - b */\n      swap1\n      sub\n      swap1\n        /* \"contracts/orai.sol\":735:859  function sub(uint256 a, uint256 b) internal constant returns (uint256) {... */\n      jump\t// out\n        /* \"contracts/orai.sol\":2715:2964  function transfer(address _to, uint256 _value) returns (bool) {... */\n    tag_87:\n      sub(exp(0x2, 0xa0), 0x1)\n        /* \"contracts/orai.sol\":2819:2829  msg.sender */\n      caller\n        /* \"contracts/orai.sol\":2810:2830  balances[msg.sender] */\n      and\n        /* \"contracts/orai.sol\":2771:2775  bool */\n      0x0\n        /* \"contracts/orai.sol\":2810:2830  balances[msg.sender] */\n      swap1\n      dup2\n      mstore\n        /* \"contracts/orai.sol\":2810:2818  balances */\n      0x1\n        /* \"contracts/orai.sol\":2810:2830  balances[msg.sender] */\n      0x20\n      mstore\n      0x40\n      dup2\n      keccak256\n      sload\n        /* \"contracts/orai.sol\":2810:2842  balances[msg.sender].sub(_value) */\n      tag_111\n      swap1\n        /* \"contracts/orai.sol\":2835:2841  _value */\n      dup4\n        /* \"contracts/orai.sol\":2810:2842  balances[msg.sender].sub(_value) */\n      0xffffffff\n        /* \"contracts/orai.sol\":2810:2834  balances[msg.sender].sub */\n      tag_80\n        /* \"contracts/orai.sol\":2810:2842  balances[msg.sender].sub(_value) */\n      and\n      jump\t// in\n    tag_111:\n      sub(exp(0x2, 0xa0), 0x1)\n        /* \"contracts/orai.sol\":2796:2806  msg.sender */\n      caller\n        /* \"contracts/orai.sol\":2787:2807  balances[msg.sender] */\n      dup2\n      and\n      0x0\n      swap1\n      dup2\n      mstore\n        /* \"contracts/orai.sol\":2787:2795  balances */\n      0x1\n        /* \"contracts/orai.sol\":2787:2807  balances[msg.sender] */\n      0x20\n      mstore\n      0x40\n      dup1\n      dup3\n      keccak256\n        /* \"contracts/orai.sol\":2787:2842  balances[msg.sender] = balances[msg.sender].sub(_value) */\n      swap4\n      swap1\n      swap4\n      sstore\n        /* \"contracts/orai.sol\":2868:2881  balances[_to] */\n      swap1\n      dup6\n      and\n      dup2\n      mstore\n      keccak256\n      sload\n        /* \"contracts/orai.sol\":2868:2893  balances[_to].add(_value) */\n      tag_112\n      swap1\n        /* \"contracts/orai.sol\":2886:2892  _value */\n      dup4\n        /* \"contracts/orai.sol\":2868:2893  balances[_to].add(_value) */\n      0xffffffff\n        /* \"contracts/orai.sol\":2868:2885  balances[_to].add */\n      tag_90\n        /* \"contracts/orai.sol\":2868:2893  balances[_to].add(_value) */\n      and\n      jump\t// in\n    tag_112:\n      sub(exp(0x2, 0xa0), 0x1)\n        /* \"contracts/orai.sol\":2852:2865  balances[_to] */\n      dup1\n      dup6\n      and\n      0x0\n      dup2\n      dup2\n      mstore\n        /* \"contracts/orai.sol\":2852:2860  balances */\n      0x1\n        /* \"contracts/orai.sol\":2852:2865  balances[_to] */\n      0x20\n      mstore\n      0x40\n      swap1\n      dup2\n      swap1\n      keccak256\n        /* \"contracts/orai.sol\":2852:2893  balances[_to] = balances[_to].add(_value) */\n      swap4\n      swap1\n      swap4\n      sstore\n        /* \"contracts/orai.sol\":2852:2865  balances[_to] */\n      swap2\n        /* \"contracts/orai.sol\":2912:2922  msg.sender */\n      caller\n        /* \"contracts/orai.sol\":2903:2936  Transfer(msg.sender, _to, _value) */\n      swap1\n      swap2\n      and\n      swap1\n      0xddf252ad1be2c89b69c2b068fc378daa952ba7f163c4a11628f55a4df523b3ef\n      swap1\n        /* \"contracts/orai.sol\":2929:2935  _value */\n      dup6\n      swap1\n        /* \"contracts/orai.sol\":2903:2936  Transfer(msg.sender, _to, _value) */\n      mload\n      swap1\n      dup2\n      mstore\n      0x20\n      add\n      mload(0x40)\n      dup1\n      swap2\n      sub\n      swap1\n      log3\n      pop\n        /* \"contracts/orai.sol\":2953:2957  true */\n      0x1\n        /* \"contracts/orai.sol\":2715:2964  function transfer(address _to, uint256 _value) returns (bool) {... */\n      swap3\n      swap2\n      pop\n      pop\n      jump\t// out\n        /* \"contracts/orai.sol\":865:1012  function add(uint256 a, uint256 b) internal constant returns (uint256) {... */\n    tag_90:\n        /* \"contracts/orai.sol\":927:934  uint256 */\n      0x0\n        /* \"contracts/orai.sol\":958:963  a + b */\n      dup3\n      dup3\n      add\n        /* \"contracts/orai.sol\":980:986  c >= a */\n      dup4\n      dup2\n      lt\n      iszero\n        /* \"contracts/orai.sol\":973:987  assert(c >= a) */\n      tag_114\n      jumpi\n      invalid\n    tag_114:\n        /* \"contracts/orai.sol\":1004:1005  c */\n      swap4\n        /* \"contracts/orai.sol\":865:1012  function add(uint256 a, uint256 b) internal constant returns (uint256) {... */\n      swap3\n      pop\n      pop\n      pop\n      jump\t// out\n        /* \"contracts/orai.sol\":7380:7574  function isContract(address _addr) private returns (bool hasCode) {... */\n    tag_104:\n        /* \"contracts/orai.sol\":7432:7444  bool hasCode */\n      0x0\n        /* \"contracts/orai.sol\":7513:7524  extcodesize */\n      swap1\n      extcodesize\n        /* \"contracts/orai.sol\":7557:7567  length > 0 */\n      gt\n      swap1\n        /* \"contracts/orai.sol\":7380:7574  function isContract(address _addr) private returns (bool hasCode) {... */\n      jump\t// out\n        /* \"contracts/orai.sol\":7145:7374  function contractFallback(... */\n    tag_107:\n        /* \"contracts/orai.sol\":7302:7305  _to */\n      dup3\n      sub(exp(0x2, 0xa0), 0x1)\n        /* \"contracts/orai.sol\":7316:7340  receiver.onTokenTransfer */\n      dup2\n      and\n      0xa4c0ed36\n        /* \"contracts/orai.sol\":7341:7351  msg.sender */\n      caller\n        /* \"contracts/orai.sol\":7353:7359  _value */\n      dup6\n        /* \"contracts/orai.sol\":7361:7366  _data */\n      dup6\n        /* \"contracts/orai.sol\":7316:7367  receiver.onTokenTransfer(msg.sender, _value, _data) */\n      mload(0x40)\n      dup5\n      0xffffffff\n      and\n      0x100000000000000000000000000000000000000000000000000000000\n      mul\n      dup2\n      mstore\n      0x4\n      add\n      dup1\n      dup5\n      sub(exp(0x2, 0xa0), 0x1)\n      and\n      sub(exp(0x2, 0xa0), 0x1)\n      and\n      dup2\n      mstore\n      0x20\n      add\n      dup4\n      dup2\n      mstore\n      0x20\n      add\n      dup1\n      0x20\n      add\n      dup3\n      dup2\n      sub\n      dup3\n      mstore\n      dup4\n      dup2\n      dup2\n      mload\n      dup2\n      mstore\n      0x20\n      add\n      swap2\n      pop\n      dup1\n      mload\n      swap1\n      0x20\n      add\n      swap1\n      dup1\n      dup4\n      dup4\n        /* \"--CODEGEN--\":23:24   */\n      0x0\n        /* \"--CODEGEN--\":8:108   */\n    tag_117:\n        /* \"--CODEGEN--\":33:36   */\n      dup4\n        /* \"--CODEGEN--\":30:31   */\n      dup2\n        /* \"--CODEGEN--\":27:29   */\n      lt\n        /* \"--CODEGEN--\":8:108   */\n      iszero\n      tag_118\n      jumpi\n        /* \"--CODEGEN--\":99:100   */\n      dup1\n        /* \"--CODEGEN--\":94:97   */\n      dup3\n        /* \"--CODEGEN--\":90:93   */\n      add\n        /* \"--CODEGEN--\":84:89   */\n      mload\n        /* \"--CODEGEN--\":71:74   */\n      dup4\n      dup3\n      add\n        /* \"--CODEGEN--\":64:70   */\n      mstore\n        /* \"--CODEGEN--\":52:54   */\n      0x20\n        /* \"--CODEGEN--\":45:48   */\n      add\n        /* \"--CODEGEN--\":8:108   */\n      jump(tag_117)\n    tag_118:\n        /* \"--CODEGEN--\":12:26   */\n      pop\n        /* \"--CODEGEN--\":3:112   */\n      pop\n      pop\n      pop\n      swap1\n      pop\n      swap1\n      dup2\n      add\n      swap1\n      0x1f\n      and\n      dup1\n      iszero\n      tag_120\n      jumpi\n      dup1\n      dup3\n      sub\n      dup1\n      mload\n      0x1\n      dup4\n      0x20\n      sub\n      0x100\n      exp\n      sub\n      not\n      and\n      dup2\n      mstore\n      0x20\n      add\n      swap2\n      pop\n    tag_120:\n      pop\n      swap5\n      pop\n      pop\n      pop\n      pop\n      pop\n      0x0\n      mload(0x40)\n      dup1\n      dup4\n      sub\n      dup2\n      0x0\n      dup8\n      dup1\n      extcodesize\n      iszero\n      iszero\n      tag_121\n      jumpi\n      0x0\n      dup1\n      revert\n    tag_121:\n      sub(gas, 0x2c6)\n      call\n      iszero\n      iszero\n      tag_122\n      jumpi\n      0x0\n      dup1\n      revert\n    tag_122:\n      pop\n      pop\n      pop\n        /* \"contracts/orai.sol\":7145:7374  function contractFallback(... */\n      pop\n      pop\n      pop\n      pop\n      jump\t// out\n\n    auxdata: 0xa165627a7a723058201f5448676464eb6b47a06d9b25335d3e5ae7fcfb84a6ff9b16b96007496f21340029\n}\n",
        "bytecode": {
          "linkReferences": {},
          "object": "6060604052341561000f57600080fd5b600160a060020a03331660009081526001602052604090206a4723355778d7d4160000009055610b12806100446000396000f3006060604052600436106100b95763ffffffff7c010000000000000000000000000000000000000000000000000000000060003504166306fdde0381146100be578063095ea7b31461014857806318160ddd1461017e57806323b872dd146101a3578063313ce567146101cb5780634000aea0146101f4578063661884631461025957806370a082311461027b57806395d89b411461029a578063a9059cbb146102ad578063d73dd623146102cf578063dd62ed3e146102f1575b600080fd5b34156100c957600080fd5b6100d1610316565b60405160208082528190810183818151815260200191508051906020019080838360005b8381101561010d5780820151838201526020016100f5565b50505050905090810190601f16801561013a5780820380516001836020036101000a031916815260200191505b509250505060405180910390f35b341561015357600080fd5b61016a600160a060020a036004351660243561034d565b604051901515815260200160405180910390f35b341561018957600080fd5b610191610397565b60405190815260200160405180910390f35b34156101ae57600080fd5b61016a600160a060020a03600435811690602435166044356103a6565b34156101d657600080fd5b6101de6103f2565b60405160ff909116815260200160405180910390f35b34156101ff57600080fd5b61016a60048035600160a060020a03169060248035919060649060443590810190830135806020601f820181900481020160405190810160405281815292919060208401838380828437509496506103f795505050505050565b341561026457600080fd5b61016a600160a060020a036004351660243561043a565b341561028657600080fd5b610191600160a060020a0360043516610534565b34156102a557600080fd5b6100d161054f565b34156102b857600080fd5b61016a600160a060020a0360043516602435610586565b34156102da57600080fd5b61016a600160a060020a03600435166024356105c8565b34156102fc57600080fd5b610191600160a060020a036004358116906024351661066c565b60408051908101604052600f81527f4f726169636861696e20546f6b656e0000000000000000000000000000000000602082015281565b600082600160a060020a0381161580159061037a575030600160a060020a031681600160a060020a031614155b151561038557600080fd5b61038f8484610697565b949350505050565b6a4723355778d7d41600000081565b600082600160a060020a038116158015906103d3575030600160a060020a031681600160a060020a031614155b15156103de57600080fd5b6103e9858585610703565b95945050505050565b601281565b600083600160a060020a03811615801590610424575030600160a060020a031681600160a060020a031614155b151561042f57600080fd5b6103e9858585610813565b600160a060020a0333811660009081526002602090815260408083209386168352929052908120548083111561049757600160a060020a0333811660009081526002602090815260408083209388168352929052908120556104ce565b6104a7818463ffffffff6108f716565b600160a060020a033381166000908152600260209081526040808320938916835292905220555b600160a060020a0333811660008181526002602090815260408083209489168084529490915290819020547f8c5be1e5ebec7d5bd14f71427d1e84f3dd0314c0f7b2291e5b200ac8c7c3b925915190815260200160405180910390a35060019392505050565b600160a060020a031660009081526001602052604090205490565b60408051908101604052600481527f4f52414900000000000000000000000000000000000000000000000000000000602082015281565b600082600160a060020a038116158015906105b3575030600160a060020a031681600160a060020a031614155b15156105be57600080fd5b61038f8484610909565b600160a060020a033381166000908152600260209081526040808320938616835292905290812054610600908363ffffffff6109c816565b600160a060020a0333811660008181526002602090815260408083209489168084529490915290819020849055919290917f8c5be1e5ebec7d5bd14f71427d1e84f3dd0314c0f7b2291e5b200ac8c7c3b92591905190815260200160405180910390a350600192915050565b600160a060020a03918216600090815260026020908152604080832093909416825291909152205490565b600160a060020a03338116600081815260026020908152604080832094871680845294909152808220859055909291907f8c5be1e5ebec7d5bd14f71427d1e84f3dd0314c0f7b2291e5b200ac8c7c3b9259085905190815260200160405180910390a350600192915050565b600160a060020a038084166000818152600260209081526040808320339095168352938152838220549282526001905291822054610747908463ffffffff6108f716565b600160a060020a03808716600090815260016020526040808220939093559086168152205461077c908463ffffffff6109c816565b600160a060020a0385166000908152600160205260409020556107a5818463ffffffff6108f716565b600160a060020a03808716600081815260026020908152604080832033861684529091529081902093909355908616917fddf252ad1be2c89b69c2b068fc378daa952ba7f163c4a11628f55a4df523b3ef9086905190815260200160405180910390a3506001949350505050565b600061081f8484610909565b5083600160a060020a031633600160a060020a03167fe19260aff97b920c7df27010903aeb9c8d2be5d310a2c67824cf3f15396e4c16858560405182815260406020820181815290820183818151815260200191508051906020019080838360005b83811015610899578082015183820152602001610881565b50505050905090810190601f1680156108c65780820380516001836020036101000a031916815260200191505b50935050505060405180910390a36108dd846109de565b156108ed576108ed8484846109e6565b5060019392505050565b60008282111561090357fe5b50900390565b600160a060020a033316600090815260016020526040812054610932908363ffffffff6108f716565b600160a060020a033381166000908152600160205260408082209390935590851681522054610967908363ffffffff6109c816565b600160a060020a0380851660008181526001602052604090819020939093559133909116907fddf252ad1be2c89b69c2b068fc378daa952ba7f163c4a11628f55a4df523b3ef9085905190815260200160405180910390a350600192915050565b6000828201838110156109d757fe5b9392505050565b6000903b1190565b82600160a060020a03811663a4c0ed363385856040518463ffffffff167c01000000000000000000000000000000000000000000000000000000000281526004018084600160a060020a0316600160a060020a0316815260200183815260200180602001828103825283818151815260200191508051906020019080838360005b83811015610a7f578082015183820152602001610a67565b50505050905090810190601f168015610aac5780820380516001836020036101000a031916815260200191505b50945050505050600060405180830381600087803b1515610acc57600080fd5b6102c65a03f11515610add57600080fd5b505050505050505600a165627a7a723058201f5448676464eb6b47a06d9b25335d3e5ae7fcfb84a6ff9b16b96007496f21340029",
          "opcodes": "PUSH1 0x60 PUSH1 0x40 MSTORE CALLVALUE ISZERO PUSH2 0xF JUMPI PUSH1 0x0 DUP1 REVERT JUMPDEST PUSH1 0x1 PUSH1 0xA0 PUSH1 0x2 EXP SUB CALLER AND PUSH1 0x0 SWAP1 DUP2 MSTORE PUSH1 0x1 PUSH1 0x20 MSTORE PUSH1 0x40 SWAP1 KECCAK256 PUSH11 0x4723355778D7D416000000 SWAP1 SSTORE PUSH2 0xB12 DUP1 PUSH2 0x44 PUSH1 0x0 CODECOPY PUSH1 0x0 RETURN STOP PUSH1 0x60 PUSH1 0x40 MSTORE PUSH1 0x4 CALLDATASIZE LT PUSH2 0xB9 JUMPI PUSH4 0xFFFFFFFF PUSH29 0x100000000000000000000000000000000000000000000000000000000 PUSH1 0x0 CALLDATALOAD DIV AND PUSH4 0x6FDDE03 DUP2 EQ PUSH2 0xBE JUMPI DUP1 PUSH4 0x95EA7B3 EQ PUSH2 0x148 JUMPI DUP1 PUSH4 0x18160DDD EQ PUSH2 0x17E JUMPI DUP1 PUSH4 0x23B872DD EQ PUSH2 0x1A3 JUMPI DUP1 PUSH4 0x313CE567 EQ PUSH2 0x1CB JUMPI DUP1 PUSH4 0x4000AEA0 EQ PUSH2 0x1F4 JUMPI DUP1 PUSH4 0x66188463 EQ PUSH2 0x259 JUMPI DUP1 PUSH4 0x70A08231 EQ PUSH2 0x27B JUMPI DUP1 PUSH4 0x95D89B41 EQ PUSH2 0x29A JUMPI DUP1 PUSH4 0xA9059CBB EQ PUSH2 0x2AD JUMPI DUP1 PUSH4 0xD73DD623 EQ PUSH2 0x2CF JUMPI DUP1 PUSH4 0xDD62ED3E EQ PUSH2 0x2F1 JUMPI JUMPDEST PUSH1 0x0 DUP1 REVERT JUMPDEST CALLVALUE ISZERO PUSH2 0xC9 JUMPI PUSH1 0x0 DUP1 REVERT JUMPDEST PUSH2 0xD1 PUSH2 0x316 JUMP JUMPDEST PUSH1 0x40 MLOAD PUSH1 0x20 DUP1 DUP3 MSTORE DUP2 SWAP1 DUP2 ADD DUP4 DUP2 DUP2 MLOAD DUP2 MSTORE PUSH1 0x20 ADD SWAP2 POP DUP1 MLOAD SWAP1 PUSH1 0x20 ADD SWAP1 DUP1 DUP4 DUP4 PUSH1 0x0 JUMPDEST DUP4 DUP2 LT ISZERO PUSH2 0x10D JUMPI DUP1 DUP3 ADD MLOAD DUP4 DUP3 ADD MSTORE PUSH1 0x20 ADD PUSH2 0xF5 JUMP JUMPDEST POP POP POP POP SWAP1 POP SWAP1 DUP2 ADD SWAP1 PUSH1 0x1F AND DUP1 ISZERO PUSH2 0x13A JUMPI DUP1 DUP3 SUB DUP1 MLOAD PUSH1 0x1 DUP4 PUSH1 0x20 SUB PUSH2 0x100 EXP SUB NOT AND DUP2 MSTORE PUSH1 0x20 ADD SWAP2 POP JUMPDEST POP SWAP3 POP POP POP PUSH1 0x40 MLOAD DUP1 SWAP2 SUB SWAP1 RETURN JUMPDEST CALLVALUE ISZERO PUSH2 0x153 JUMPI PUSH1 0x0 DUP1 REVERT JUMPDEST PUSH2 0x16A PUSH1 0x1 PUSH1 0xA0 PUSH1 0x2 EXP SUB PUSH1 0x4 CALLDATALOAD AND PUSH1 0x24 CALLDATALOAD PUSH2 0x34D JUMP JUMPDEST PUSH1 0x40 MLOAD SWAP1 ISZERO ISZERO DUP2 MSTORE PUSH1 0x20 ADD PUSH1 0x40 MLOAD DUP1 SWAP2 SUB SWAP1 RETURN JUMPDEST CALLVALUE ISZERO PUSH2 0x189 JUMPI PUSH1 0x0 DUP1 REVERT JUMPDEST PUSH2 0x191 PUSH2 0x397 JUMP JUMPDEST PUSH1 0x40 MLOAD SWAP1 DUP2 MSTORE PUSH1 0x20 ADD PUSH1 0x40 MLOAD DUP1 SWAP2 SUB SWAP1 RETURN JUMPDEST CALLVALUE ISZERO PUSH2 0x1AE JUMPI PUSH1 0x0 DUP1 REVERT JUMPDEST PUSH2 0x16A PUSH1 0x1 PUSH1 0xA0 PUSH1 0x2 EXP SUB PUSH1 0x4 CALLDATALOAD DUP2 AND SWAP1 PUSH1 0x24 CALLDATALOAD AND PUSH1 0x44 CALLDATALOAD PUSH2 0x3A6 JUMP JUMPDEST CALLVALUE ISZERO PUSH2 0x1D6 JUMPI PUSH1 0x0 DUP1 REVERT JUMPDEST PUSH2 0x1DE PUSH2 0x3F2 JUMP JUMPDEST PUSH1 0x40 MLOAD PUSH1 0xFF SWAP1 SWAP2 AND DUP2 MSTORE PUSH1 0x20 ADD PUSH1 0x40 MLOAD DUP1 SWAP2 SUB SWAP1 RETURN JUMPDEST CALLVALUE ISZERO PUSH2 0x1FF JUMPI PUSH1 0x0 DUP1 REVERT JUMPDEST PUSH2 0x16A PUSH1 0x4 DUP1 CALLDATALOAD PUSH1 0x1 PUSH1 0xA0 PUSH1 0x2 EXP SUB AND SWAP1 PUSH1 0x24 DUP1 CALLDATALOAD SWAP2 SWAP1 PUSH1 0x64 SWAP1 PUSH1 0x44 CALLDATALOAD SWAP1 DUP2 ADD SWAP1 DUP4 ADD CALLDATALOAD DUP1 PUSH1 0x20 PUSH1 0x1F DUP3 ADD DUP2 SWAP1 DIV DUP2 MUL ADD PUSH1 0x40 MLOAD SWAP1 DUP2 ADD PUSH1 0x40 MSTORE DUP2 DUP2 MSTORE SWAP3 SWAP2 SWAP1 PUSH1 0x20 DUP5 ADD DUP4 DUP4 DUP1 DUP3 DUP5 CALLDATACOPY POP SWAP5 SWAP7 POP PUSH2 0x3F7 SWAP6 POP POP POP POP POP POP JUMP JUMPDEST CALLVALUE ISZERO PUSH2 0x264 JUMPI PUSH1 0x0 DUP1 REVERT JUMPDEST PUSH2 0x16A PUSH1 0x1 PUSH1 0xA0 PUSH1 0x2 EXP SUB PUSH1 0x4 CALLDATALOAD AND PUSH1 0x24 CALLDATALOAD PUSH2 0x43A JUMP JUMPDEST CALLVALUE ISZERO PUSH2 0x286 JUMPI PUSH1 0x0 DUP1 REVERT JUMPDEST PUSH2 0x191 PUSH1 0x1 PUSH1 0xA0 PUSH1 0x2 EXP SUB PUSH1 0x4 CALLDATALOAD AND PUSH2 0x534 JUMP JUMPDEST CALLVALUE ISZERO PUSH2 0x2A5 JUMPI PUSH1 0x0 DUP1 REVERT JUMPDEST PUSH2 0xD1 PUSH2 0x54F JUMP JUMPDEST CALLVALUE ISZERO PUSH2 0x2B8 JUMPI PUSH1 0x0 DUP1 REVERT JUMPDEST PUSH2 0x16A PUSH1 0x1 PUSH1 0xA0 PUSH1 0x2 EXP SUB PUSH1 0x4 CALLDATALOAD AND PUSH1 0x24 CALLDATALOAD PUSH2 0x586 JUMP JUMPDEST CALLVALUE ISZERO PUSH2 0x2DA JUMPI PUSH1 0x0 DUP1 REVERT JUMPDEST PUSH2 0x16A PUSH1 0x1 PUSH1 0xA0 PUSH1 0x2 EXP SUB PUSH1 0x4 CALLDATALOAD AND PUSH1 0x24 CALLDATALOAD PUSH2 0x5C8 JUMP JUMPDEST CALLVALUE ISZERO PUSH2 0x2FC JUMPI PUSH1 0x0 DUP1 REVERT JUMPDEST PUSH2 0x191 PUSH1 0x1 PUSH1 0xA0 PUSH1 0x2 EXP SUB PUSH1 0x4 CALLDATALOAD DUP2 AND SWAP1 PUSH1 0x24 CALLDATALOAD AND PUSH2 0x66C JUMP JUMPDEST PUSH1 0x40 DUP1 MLOAD SWAP1 DUP2 ADD PUSH1 0x40 MSTORE PUSH1 0xF DUP2 MSTORE PUSH32 0x4F726169636861696E20546F6B656E0000000000000000000000000000000000 PUSH1 0x20 DUP3 ADD MSTORE DUP2 JUMP JUMPDEST PUSH1 0x0 DUP3 PUSH1 0x1 PUSH1 0xA0 PUSH1 0x2 EXP SUB DUP2 AND ISZERO DUP1 ISZERO SWAP1 PUSH2 0x37A JUMPI POP ADDRESS PUSH1 0x1 PUSH1 0xA0 PUSH1 0x2 EXP SUB AND DUP2 PUSH1 0x1 PUSH1 0xA0 PUSH1 0x2 EXP SUB AND EQ ISZERO JUMPDEST ISZERO ISZERO PUSH2 0x385 JUMPI PUSH1 0x0 DUP1 REVERT JUMPDEST PUSH2 0x38F DUP5 DUP5 PUSH2 0x697 JUMP JUMPDEST SWAP5 SWAP4 POP POP POP POP JUMP JUMPDEST PUSH11 0x4723355778D7D416000000 DUP2 JUMP JUMPDEST PUSH1 0x0 DUP3 PUSH1 0x1 PUSH1 0xA0 PUSH1 0x2 EXP SUB DUP2 AND ISZERO DUP1 ISZERO SWAP1 PUSH2 0x3D3 JUMPI POP ADDRESS PUSH1 0x1 PUSH1 0xA0 PUSH1 0x2 EXP SUB AND DUP2 PUSH1 0x1 PUSH1 0xA0 PUSH1 0x2 EXP SUB AND EQ ISZERO JUMPDEST ISZERO ISZERO PUSH2 0x3DE JUMPI PUSH1 0x0 DUP1 REVERT JUMPDEST PUSH2 0x3E9 DUP6 DUP6 DUP6 PUSH2 0x703 JUMP JUMPDEST SWAP6 SWAP5 POP POP POP POP POP JUMP JUMPDEST PUSH1 0x12 DUP2 JUMP JUMPDEST PUSH1 0x0 DUP4 PUSH1 0x1 PUSH1 0xA0 PUSH1 0x2 EXP SUB DUP2 AND ISZERO DUP1 ISZERO SWAP1 PUSH2 0x424 JUMPI POP ADDRESS PUSH1 0x1 PUSH1 0xA0 PUSH1 0x2 EXP SUB AND DUP2 PUSH1 0x1 PUSH1 0xA0 PUSH1 0x2 EXP SUB AND EQ ISZERO JUMPDEST ISZERO ISZERO PUSH2 0x42F JUMPI PUSH1 0x0 DUP1 REVERT JUMPDEST PUSH2 0x3E9 DUP6 DUP6 DUP6 PUSH2 0x813 JUMP JUMPDEST PUSH1 0x1 PUSH1 0xA0 PUSH1 0x2 EXP SUB CALLER DUP2 AND PUSH1 0x0 SWAP1 DUP2 MSTORE PUSH1 0x2 PUSH1 0x20 SWAP1 DUP2 MSTORE PUSH1 0x40 DUP1 DUP4 KECCAK256 SWAP4 DUP7 AND DUP4 MSTORE SWAP3 SWAP1 MSTORE SWAP1 DUP2 KECCAK256 SLOAD DUP1 DUP4 GT ISZERO PUSH2 0x497 JUMPI PUSH1 0x1 PUSH1 0xA0 PUSH1 0x2 EXP SUB CALLER DUP2 AND PUSH1 0x0 SWAP1 DUP2 MSTORE PUSH1 0x2 PUSH1 0x20 SWAP1 DUP2 MSTORE PUSH1 0x40 DUP1 DUP4 KECCAK256 SWAP4 DUP9 AND DUP4 MSTORE SWAP3 SWAP1 MSTORE SWAP1 DUP2 KECCAK256 SSTORE PUSH2 0x4CE JUMP JUMPDEST PUSH2 0x4A7 DUP2 DUP5 PUSH4 0xFFFFFFFF PUSH2 0x8F7 AND JUMP JUMPDEST PUSH1 0x1 PUSH1 0xA0 PUSH1 0x2 EXP SUB CALLER DUP2 AND PUSH1 0x0 SWAP1 DUP2 MSTORE PUSH1 0x2 PUSH1 0x20 SWAP1 DUP2 MSTORE PUSH1 0x40 DUP1 DUP4 KECCAK256 SWAP4 DUP10 AND DUP4 MSTORE SWAP3 SWAP1 MSTORE KECCAK256 SSTORE JUMPDEST PUSH1 0x1 PUSH1 0xA0 PUSH1 0x2 EXP SUB CALLER DUP2 AND PUSH1 0x0 DUP2 DUP2 MSTORE PUSH1 0x2 PUSH1 0x20 SWAP1 DUP2 MSTORE PUSH1 0x40 DUP1 DUP4 KECCAK256 SWAP5 DUP10 AND DUP1 DUP5 MSTORE SWAP5 SWAP1 SWAP2 MSTORE SWAP1 DUP2 SWAP1 KECCAK256 SLOAD PUSH32 0x8C5BE1E5EBEC7D5BD14F71427D1E84F3DD0314C0F7B2291E5B200AC8C7C3B925 SWAP2 MLOAD SWAP1 DUP2 MSTORE PUSH1 0x20 ADD PUSH1 0x40 MLOAD DUP1 SWAP2 SUB SWAP1 LOG3 POP PUSH1 0x1 SWAP4 SWAP3 POP POP POP JUMP JUMPDEST PUSH1 0x1 PUSH1 0xA0 PUSH1 0x2 EXP SUB AND PUSH1 0x0 SWAP1 DUP2 MSTORE PUSH1 0x1 PUSH1 0x20 MSTORE PUSH1 0x40 SWAP1 KECCAK256 SLOAD SWAP1 JUMP JUMPDEST PUSH1 0x40 DUP1 MLOAD SWAP1 DUP2 ADD PUSH1 0x40 MSTORE PUSH1 0x4 DUP2 MSTORE PUSH32 0x4F52414900000000000000000000000000000000000000000000000000000000 PUSH1 0x20 DUP3 ADD MSTORE DUP2 JUMP JUMPDEST PUSH1 0x0 DUP3 PUSH1 0x1 PUSH1 0xA0 PUSH1 0x2 EXP SUB DUP2 AND ISZERO DUP1 ISZERO SWAP1 PUSH2 0x5B3 JUMPI POP ADDRESS PUSH1 0x1 PUSH1 0xA0 PUSH1 0x2 EXP SUB AND DUP2 PUSH1 0x1 PUSH1 0xA0 PUSH1 0x2 EXP SUB AND EQ ISZERO JUMPDEST ISZERO ISZERO PUSH2 0x5BE JUMPI PUSH1 0x0 DUP1 REVERT JUMPDEST PUSH2 0x38F DUP5 DUP5 PUSH2 0x909 JUMP JUMPDEST PUSH1 0x1 PUSH1 0xA0 PUSH1 0x2 EXP SUB CALLER DUP2 AND PUSH1 0x0 SWAP1 DUP2 MSTORE PUSH1 0x2 PUSH1 0x20 SWAP1 DUP2 MSTORE PUSH1 0x40 DUP1 DUP4 KECCAK256 SWAP4 DUP7 AND DUP4 MSTORE SWAP3 SWAP1 MSTORE SWAP1 DUP2 KECCAK256 SLOAD PUSH2 0x600 SWAP1 DUP4 PUSH4 0xFFFFFFFF PUSH2 0x9C8 AND JUMP JUMPDEST PUSH1 0x1 PUSH1 0xA0 PUSH1 0x2 EXP SUB CALLER DUP2 AND PUSH1 0x0 DUP2 DUP2 MSTORE PUSH1 0x2 PUSH1 0x20 SWAP1 DUP2 MSTORE PUSH1 0x40 DUP1 DUP4 KECCAK256 SWAP5 DUP10 AND DUP1 DUP5 MSTORE SWAP5 SWAP1 SWAP2 MSTORE SWAP1 DUP2 SWAP1 KECCAK256 DUP5 SWAP1 SSTORE SWAP2 SWAP3 SWAP1 SWAP2 PUSH32 0x8C5BE1E5EBEC7D5BD14F71427D1E84F3DD0314C0F7B2291E5B200AC8C7C3B925 SWAP2 SWAP1 MLOAD SWAP1 DUP2 MSTORE PUSH1 0x20 ADD PUSH1 0x40 MLOAD DUP1 SWAP2 SUB SWAP1 LOG3 POP PUSH1 0x1 SWAP3 SWAP2 POP POP JUMP JUMPDEST PUSH1 0x1 PUSH1 0xA0 PUSH1 0x2 EXP SUB SWAP2 DUP3 AND PUSH1 0x0 SWAP1 DUP2 MSTORE PUSH1 0x2 PUSH1 0x20 SWAP1 DUP2 MSTORE PUSH1 0x40 DUP1 DUP4 KECCAK256 SWAP4 SWAP1 SWAP5 AND DUP3 MSTORE SWAP2 SWAP1 SWAP2 MSTORE KECCAK256 SLOAD SWAP1 JUMP JUMPDEST PUSH1 0x1 PUSH1 0xA0 PUSH1 0x2 EXP SUB CALLER DUP2 AND PUSH1 0x0 DUP2 DUP2 MSTORE PUSH1 0x2 PUSH1 0x20 SWAP1 DUP2 MSTORE PUSH1 0x40 DUP1 DUP4 KECCAK256 SWAP5 DUP8 AND DUP1 DUP5 MSTORE SWAP5 SWAP1 SWAP2 MSTORE DUP1 DUP3 KECCAK256 DUP6 SWAP1 SSTORE SWAP1 SWAP3 SWAP2 SWAP1 PUSH32 0x8C5BE1E5EBEC7D5BD14F71427D1E84F3DD0314C0F7B2291E5B200AC8C7C3B925 SWAP1 DUP6 SWAP1 MLOAD SWAP1 DUP2 MSTORE PUSH1 0x20 ADD PUSH1 0x40 MLOAD DUP1 SWAP2 SUB SWAP1 LOG3 POP PUSH1 0x1 SWAP3 SWAP2 POP POP JUMP JUMPDEST PUSH1 0x1 PUSH1 0xA0 PUSH1 0x2 EXP SUB DUP1 DUP5 AND PUSH1 0x0 DUP2 DUP2 MSTORE PUSH1 0x2 PUSH1 0x20 SWAP1 DUP2 MSTORE PUSH1 0x40 DUP1 DUP4 KECCAK256 CALLER SWAP1 SWAP6 AND DUP4 MSTORE SWAP4 DUP2 MSTORE DUP4 DUP3 KECCAK256 SLOAD SWAP3 DUP3 MSTORE PUSH1 0x1 SWAP1 MSTORE SWAP2 DUP3 KECCAK256 SLOAD PUSH2 0x747 SWAP1 DUP5 PUSH4 0xFFFFFFFF PUSH2 0x8F7 AND JUMP JUMPDEST PUSH1 0x1 PUSH1 0xA0 PUSH1 0x2 EXP SUB DUP1 DUP8 AND PUSH1 0x0 SWAP1 DUP2 MSTORE PUSH1 0x1 PUSH1 0x20 MSTORE PUSH1 0x40 DUP1 DUP3 KECCAK256 SWAP4 SWAP1 SWAP4 SSTORE SWAP1 DUP7 AND DUP2 MSTORE KECCAK256 SLOAD PUSH2 0x77C SWAP1 DUP5 PUSH4 0xFFFFFFFF PUSH2 0x9C8 AND JUMP JUMPDEST PUSH1 0x1 PUSH1 0xA0 PUSH1 0x2 EXP SUB DUP6 AND PUSH1 0x0 SWAP1 DUP2 MSTORE PUSH1 0x1 PUSH1 0x20 MSTORE PUSH1 0x40 SWAP1 KECCAK256 SSTORE PUSH2 0x7A5 DUP2 DUP5 PUSH4 0xFFFFFFFF PUSH2 0x8F7 AND JUMP JUMPDEST PUSH1 0x1 PUSH1 0xA0 PUSH1 0x2 EXP SUB DUP1 DUP8 AND PUSH1 0x0 DUP2 DUP2 MSTORE PUSH1 0x2 PUSH1 0x20 SWAP1 DUP2 MSTORE PUSH1 0x40 DUP1 DUP4 KECCAK256 CALLER DUP7 AND DUP5 MSTORE SWAP1 SWAP2 MSTORE SWAP1 DUP2 SWAP1 KECCAK256 SWAP4 SWAP1 SWAP4 SSTORE SWAP1 DUP7 AND SWAP2 PUSH32 0xDDF252AD1BE2C89B69C2B068FC378DAA952BA7F163C4A11628F55A4DF523B3EF SWAP1 DUP7 SWAP1 MLOAD SWAP1 DUP2 MSTORE PUSH1 0x20 ADD PUSH1 0x40 MLOAD DUP1 SWAP2 SUB SWAP1 LOG3 POP PUSH1 0x1 SWAP5 SWAP4 POP POP POP POP JUMP JUMPDEST PUSH1 0x0 PUSH2 0x81F DUP5 DUP5 PUSH2 0x909 JUMP JUMPDEST POP DUP4 PUSH1 0x1 PUSH1 0xA0 PUSH1 0x2 EXP SUB AND CALLER PUSH1 0x1 PUSH1 0xA0 PUSH1 0x2 EXP SUB AND PUSH32 0xE19260AFF97B920C7DF27010903AEB9C8D2BE5D310A2C67824CF3F15396E4C16 DUP6 DUP6 PUSH1 0x40 MLOAD DUP3 DUP2 MSTORE PUSH1 0x40 PUSH1 0x20 DUP3 ADD DUP2 DUP2 MSTORE SWAP1 DUP3 ADD DUP4 DUP2 DUP2 MLOAD DUP2 MSTORE PUSH1 0x20 ADD SWAP2 POP DUP1 MLOAD SWAP1 PUSH1 0x20 ADD SWAP1 DUP1 DUP4 DUP4 PUSH1 0x0 JUMPDEST DUP4 DUP2 LT ISZERO PUSH2 0x899 JUMPI DUP1 DUP3 ADD MLOAD DUP4 DUP3 ADD MSTORE PUSH1 0x20 ADD PUSH2 0x881 JUMP JUMPDEST POP POP POP POP SWAP1 POP SWAP1 DUP2 ADD SWAP1 PUSH1 0x1F AND DUP1 ISZERO PUSH2 0x8C6 JUMPI DUP1 DUP3 SUB DUP1 MLOAD PUSH1 0x1 DUP4 PUSH1 0x20 SUB PUSH2 0x100 EXP SUB NOT AND DUP2 MSTORE PUSH1 0x20 ADD SWAP2 POP JUMPDEST POP SWAP4 POP POP POP POP PUSH1 0x40 MLOAD DUP1 SWAP2 SUB SWAP1 LOG3 PUSH2 0x8DD DUP5 PUSH2 0x9DE JUMP JUMPDEST ISZERO PUSH2 0x8ED JUMPI PUSH2 0x8ED DUP5 DUP5 DUP5 PUSH2 0x9E6 JUMP JUMPDEST POP PUSH1 0x1 SWAP4 SWAP3 POP POP POP JUMP JUMPDEST PUSH1 0x0 DUP3 DUP3 GT ISZERO PUSH2 0x903 JUMPI INVALID JUMPDEST POP SWAP1 SUB SWAP1 JUMP JUMPDEST PUSH1 0x1 PUSH1 0xA0 PUSH1 0x2 EXP SUB CALLER AND PUSH1 0x0 SWAP1 DUP2 MSTORE PUSH1 0x1 PUSH1 0x20 MSTORE PUSH1 0x40 DUP2 KECCAK256 SLOAD PUSH2 0x932 SWAP1 DUP4 PUSH4 0xFFFFFFFF PUSH2 0x8F7 AND JUMP JUMPDEST PUSH1 0x1 PUSH1 0xA0 PUSH1 0x2 EXP SUB CALLER DUP2 AND PUSH1 0x0 SWAP1 DUP2 MSTORE PUSH1 0x1 PUSH1 0x20 MSTORE PUSH1 0x40 DUP1 DUP3 KECCAK256 SWAP4 SWAP1 SWAP4 SSTORE SWAP1 DUP6 AND DUP2 MSTORE KECCAK256 SLOAD PUSH2 0x967 SWAP1 DUP4 PUSH4 0xFFFFFFFF PUSH2 0x9C8 AND JUMP JUMPDEST PUSH1 0x1 PUSH1 0xA0 PUSH1 0x2 EXP SUB DUP1 DUP6 AND PUSH1 0x0 DUP2 DUP2 MSTORE PUSH1 0x1 PUSH1 0x20 MSTORE PUSH1 0x40 SWAP1 DUP2 SWAP1 KECCAK256 SWAP4 SWAP1 SWAP4 SSTORE SWAP2 CALLER SWAP1 SWAP2 AND SWAP1 PUSH32 0xDDF252AD1BE2C89B69C2B068FC378DAA952BA7F163C4A11628F55A4DF523B3EF SWAP1 DUP6 SWAP1 MLOAD SWAP1 DUP2 MSTORE PUSH1 0x20 ADD PUSH1 0x40 MLOAD DUP1 SWAP2 SUB SWAP1 LOG3 POP PUSH1 0x1 SWAP3 SWAP2 POP POP JUMP JUMPDEST PUSH1 0x0 DUP3 DUP3 ADD DUP4 DUP2 LT ISZERO PUSH2 0x9D7 JUMPI INVALID JUMPDEST SWAP4 SWAP3 POP POP POP JUMP JUMPDEST PUSH1 0x0 SWAP1 EXTCODESIZE GT SWAP1 JUMP JUMPDEST DUP3 PUSH1 0x1 PUSH1 0xA0 PUSH1 0x2 EXP SUB DUP2 AND PUSH4 0xA4C0ED36 CALLER DUP6 DUP6 PUSH1 0x40 MLOAD DUP5 PUSH4 0xFFFFFFFF AND PUSH29 0x100000000000000000000000000000000000000000000000000000000 MUL DUP2 MSTORE PUSH1 0x4 ADD DUP1 DUP5 PUSH1 0x1 PUSH1 0xA0 PUSH1 0x2 EXP SUB AND PUSH1 0x1 PUSH1 0xA0 PUSH1 0x2 EXP SUB AND DUP2 MSTORE PUSH1 0x20 ADD DUP4 DUP2 MSTORE PUSH1 0x20 ADD DUP1 PUSH1 0x20 ADD DUP3 DUP2 SUB DUP3 MSTORE DUP4 DUP2 DUP2 MLOAD DUP2 MSTORE PUSH1 0x20 ADD SWAP2 POP DUP1 MLOAD SWAP1 PUSH1 0x20 ADD SWAP1 DUP1 DUP4 DUP4 PUSH1 0x0 JUMPDEST DUP4 DUP2 LT ISZERO PUSH2 0xA7F JUMPI DUP1 DUP3 ADD MLOAD DUP4 DUP3 ADD MSTORE PUSH1 0x20 ADD PUSH2 0xA67 JUMP JUMPDEST POP POP POP POP SWAP1 POP SWAP1 DUP2 ADD SWAP1 PUSH1 0x1F AND DUP1 ISZERO PUSH2 0xAAC JUMPI DUP1 DUP3 SUB DUP1 MLOAD PUSH1 0x1 DUP4 PUSH1 0x20 SUB PUSH2 0x100 EXP SUB NOT AND DUP2 MSTORE PUSH1 0x20 ADD SWAP2 POP JUMPDEST POP SWAP5 POP POP POP POP POP PUSH1 0x0 PUSH1 0x40 MLOAD DUP1 DUP4 SUB DUP2 PUSH1 0x0 DUP8 DUP1 EXTCODESIZE ISZERO ISZERO PUSH2 0xACC JUMPI PUSH1 0x0 DUP1 REVERT JUMPDEST PUSH2 0x2C6 GAS SUB CALL ISZERO ISZERO PUSH2 0xADD JUMPI PUSH1 0x0 DUP1 REVERT JUMPDEST POP POP POP POP POP POP POP JUMP STOP LOG1 PUSH6 0x627A7A723058 KECCAK256 0x1f SLOAD 0x48 PUSH8 0x6464EB6B47A06D9B 0x25 CALLER 0x5d RETURNDATACOPY GAS 0xe7 0xfc CREATE2 DUP5 0xa6 SELFDESTRUCT SWAP12 AND 0xb9 PUSH1 0x7 0x49 PUSH16 0x21340029000000000000000000000000 "
        },
        "gasEstimates": {
          "creation": {
            "codeDepositCost": "566800",
            "executionCost": "20747",
            "totalCost": "587547"
          },
          "external": {
            "allowance(address,address)": "939",
            "approve(address,uint256)": "22692",
            "balanceOf(address)": "749",
            "decimals()": "270",
            "decreaseApproval(address,uint256)": "infinite",
            "increaseApproval(address,uint256)": "infinite",
            "name()": "infinite",
            "symbol()": "infinite",
            "totalSupply()": "217",
            "transfer(address,uint256)": "infinite",
            "transferAndCall(address,uint256,bytes)": "infinite",
            "transferFrom(address,address,uint256)": "infinite"
          }
        },
        "methodIdentifiers": {
          "allowance(address,address)": "dd62ed3e",
          "approve(address,uint256)": "095ea7b3",
          "balanceOf(address)": "70a08231",
          "decimals()": "313ce567",
          "decreaseApproval(address,uint256)": "66188463",
          "increaseApproval(address,uint256)": "d73dd623",
          "name()": "06fdde03",
          "symbol()": "95d89b41",
          "totalSupply()": "18160ddd",
          "transfer(address,uint256)": "a9059cbb",
          "transferAndCall(address,uint256,bytes)": "4000aea0",
          "transferFrom(address,address,uint256)": "23b872dd"
        }
      },
      "userdoc": {
        "methods": {}
      }
    }
  }
}