{
  "_format": "hh-sol-artifact-1",
  "contractName": "NFT20Vault",
  "sourceName": "contracts/vault.sol",
  "abi": [
    {
      "anonymous": false,
      "inputs": [
        {
          "indexed": true,
          "internalType": "address",
          "name": "owner",
          "type": "address"
        },
        {
          "indexed": true,
          "internalType": "address",
          "name": "spender",
          "type": "address"
        },
        {
          "indexed": false,
          "internalType": "uint256",
          "name": "value",
          "type": "uint256"
        }
      ],
      "name": "Approval",
      "type": "event"
    },
    {
      "anonymous": false,
      "inputs": [
        {
          "indexed": false,
          "internalType": "uint64",
          "name": "auctionId",
          "type": "uint64"
        },
        {
          "indexed": true,
          "internalType": "address",
          "name": "seller",
          "type": "address"
        },
        {
          "indexed": true,
          "internalType": "address",
          "name": "nftFactory",
          "type": "address"
        },
        {
          "indexed": false,
          "internalType": "uint256",
          "name": "tokenId",
          "type": "uint256"
        }
      ],
      "name": "AuctionCancelled",
      "type": "event"
    },
    {
      "anonymous": false,
      "inputs": [
        {
          "indexed": false,
          "internalType": "uint256",
          "name": "auctionId",
          "type": "uint256"
        },
        {
          "indexed": true,
          "internalType": "address",
          "name": "seller",
          "type": "address"
        },
        {
          "indexed": true,
          "internalType": "address",
          "name": "nftFactory",
          "type": "address"
        },
        {
          "indexed": false,
          "internalType": "uint256",
          "name": "tokenId",
          "type": "uint256"
        },
        {
          "indexed": false,
          "internalType": "uint256",
          "name": "startingPrice",
          "type": "uint256"
        },
        {
          "indexed": false,
          "internalType": "uint256",
          "name": "endingPrice",
          "type": "uint256"
        },
        {
          "indexed": false,
          "internalType": "uint128",
          "name": "duration",
          "type": "uint128"
        },
        {
          "indexed": false,
          "internalType": "uint64",
          "name": "nftType",
          "type": "uint64"
        }
      ],
      "name": "AuctionCreated",
      "type": "event"
    },
    {
      "anonymous": false,
      "inputs": [
        {
          "indexed": false,
          "internalType": "uint256",
          "name": "auctionId",
          "type": "uint256"
        },
        {
          "indexed": true,
          "internalType": "address",
          "name": "seller",
          "type": "address"
        },
        {
          "indexed": true,
          "internalType": "address",
          "name": "nftFactory",
          "type": "address"
        },
        {
          "indexed": false,
          "internalType": "uint256",
          "name": "tokenId",
          "type": "uint256"
        },
        {
          "indexed": false,
          "internalType": "uint256",
          "name": "totalPrice",
          "type": "uint256"
        },
        {
          "indexed": false,
          "internalType": "address",
          "name": "winner",
          "type": "address"
        }
      ],
      "name": "AuctionFinished",
      "type": "event"
    },
    {
      "anonymous": false,
      "inputs": [
        {
          "indexed": true,
          "internalType": "address",
          "name": "auctioneer",
          "type": "address"
        },
        {
          "indexed": false,
          "internalType": "uint256",
          "name": "auctionId",
          "type": "uint256"
        },
        {
          "indexed": false,
          "internalType": "uint256",
          "name": "value",
          "type": "uint256"
        }
      ],
      "name": "Bid",
      "type": "event"
    },
    {
      "anonymous": false,
      "inputs": [
        {
          "indexed": true,
          "internalType": "address",
          "name": "nftFactory",
          "type": "address"
        },
        {
          "indexed": true,
          "internalType": "uint256",
          "name": "tokenId",
          "type": "uint256"
        },
        {
          "indexed": false,
          "internalType": "uint256",
          "name": "oldPrice",
          "type": "uint256"
        },
        {
          "indexed": false,
          "internalType": "address",
          "name": "newPrice",
          "type": "address"
        }
      ],
      "name": "ChangeSellPrice",
      "type": "event"
    },
    {
      "anonymous": false,
      "inputs": [
        {
          "indexed": true,
          "internalType": "address",
          "name": "from",
          "type": "address"
        },
        {
          "indexed": true,
          "internalType": "address",
          "name": "to",
          "type": "address"
        },
        {
          "indexed": false,
          "internalType": "uint256",
          "name": "value",
          "type": "uint256"
        }
      ],
      "name": "Transfer",
      "type": "event"
    },
    {
      "inputs": [
        {
          "internalType": "address",
          "name": "owner",
          "type": "address"
        },
        {
          "internalType": "address",
          "name": "spender",
          "type": "address"
        }
      ],
      "name": "allowance",
      "outputs": [
        {
          "internalType": "uint256",
          "name": "",
          "type": "uint256"
        }
      ],
      "stateMutability": "view",
      "type": "function"
    },
    {
      "inputs": [
        {
          "internalType": "address",
          "name": "spender",
          "type": "address"
        },
        {
          "internalType": "uint256",
          "name": "amount",
          "type": "uint256"
        }
      ],
      "name": "approve",
      "outputs": [
        {
          "internalType": "bool",
          "name": "",
          "type": "bool"
        }
      ],
      "stateMutability": "nonpayable",
      "type": "function"
    },
    {
      "inputs": [],
      "name": "auctionIdGlobal",
      "outputs": [
        {
          "internalType": "uint256",
          "name": "",
          "type": "uint256"
        }
      ],
      "stateMutability": "view",
      "type": "function"
    },
    {
      "inputs": [
        {
          "internalType": "uint256",
          "name": "",
          "type": "uint256"
        }
      ],
      "name": "auctionIdToAuction",
      "outputs": [
        {
          "internalType": "uint256",
          "name": "id",
          "type": "uint256"
        },
        {
          "internalType": "address",
          "name": "seller",
          "type": "address"
        },
        {
          "internalType": "address",
          "name": "nftFactory",
          "type": "address"
        },
        {
          "internalType": "uint256",
          "name": "tokenId",
          "type": "uint256"
        },
        {
          "internalType": "uint256",
          "name": "startingPrice",
          "type": "uint256"
        },
        {
          "internalType": "uint256",
          "name": "endingPrice",
          "type": "uint256"
        },
        {
          "internalType": "uint128",
          "name": "duration",
          "type": "uint128"
        },
        {
          "internalType": "uint64",
          "name": "nftType",
          "type": "uint64"
        },
        {
          "internalType": "uint64",
          "name": "status",
          "type": "uint64"
        },
        {
          "internalType": "uint256",
          "name": "startedAt",
          "type": "uint256"
        }
      ],
      "stateMutability": "view",
      "type": "function"
    },
    {
      "inputs": [
        {
          "internalType": "address",
          "name": "account",
          "type": "address"
        }
      ],
      "name": "balanceOf",
      "outputs": [
        {
          "internalType": "uint256",
          "name": "",
          "type": "uint256"
        }
      ],
      "stateMutability": "view",
      "type": "function"
    },
    {
      "inputs": [
        {
          "internalType": "uint256",
          "name": "_auctionId",
          "type": "uint256"
        },
        {
          "internalType": "uint256",
          "name": "_bidValue",
          "type": "uint256"
        },
        {
          "internalType": "uint256",
          "name": "sellPrice",
          "type": "uint256"
        }
      ],
      "name": "bid",
      "outputs": [],
      "stateMutability": "nonpayable",
      "type": "function"
    },
    {
      "inputs": [
        {
          "internalType": "uint256",
          "name": "",
          "type": "uint256"
        },
        {
          "internalType": "uint256",
          "name": "",
          "type": "uint256"
        }
      ],
      "name": "bidData",
      "outputs": [
        {
          "internalType": "address",
          "name": "user",
          "type": "address"
        },
        {
          "internalType": "uint256",
          "name": "price",
          "type": "uint256"
        },
        {
          "internalType": "uint256",
          "name": "sellPrice",
          "type": "uint256"
        }
      ],
      "stateMutability": "view",
      "type": "function"
    },
    {
      "inputs": [
        {
          "internalType": "uint256",
          "name": "amount",
          "type": "uint256"
        }
      ],
      "name": "burn",
      "outputs": [],
      "stateMutability": "nonpayable",
      "type": "function"
    },
    {
      "inputs": [
        {
          "internalType": "address",
          "name": "account",
          "type": "address"
        },
        {
          "internalType": "uint256",
          "name": "amount",
          "type": "uint256"
        }
      ],
      "name": "burnFrom",
      "outputs": [],
      "stateMutability": "nonpayable",
      "type": "function"
    },
    {
      "inputs": [],
      "name": "burnPercent",
      "outputs": [
        {
          "internalType": "uint256",
          "name": "",
          "type": "uint256"
        }
      ],
      "stateMutability": "view",
      "type": "function"
    },
    {
      "inputs": [
        {
          "internalType": "address",
          "name": "nftFactory",
          "type": "address"
        },
        {
          "internalType": "uint256",
          "name": "tokenId",
          "type": "uint256"
        },
        {
          "internalType": "uint256",
          "name": "index",
          "type": "uint256"
        },
        {
          "internalType": "uint256",
          "name": "sellPrice",
          "type": "uint256"
        }
      ],
      "name": "buy",
      "outputs": [],
      "stateMutability": "nonpayable",
      "type": "function"
    },
    {
      "inputs": [
        {
          "internalType": "uint64",
          "name": "_auctionId",
          "type": "uint64"
        }
      ],
      "name": "cancelAuctionByAuctionId",
      "outputs": [],
      "stateMutability": "nonpayable",
      "type": "function"
    },
    {
      "inputs": [
        {
          "internalType": "address",
          "name": "nftFactory",
          "type": "address"
        },
        {
          "internalType": "uint256",
          "name": "tokenId",
          "type": "uint256"
        },
        {
          "internalType": "uint256",
          "name": "sellPrice",
          "type": "uint256"
        },
        {
          "internalType": "uint256",
          "name": "index",
          "type": "uint256"
        }
      ],
      "name": "changeSellPrice",
      "outputs": [],
      "stateMutability": "nonpayable",
      "type": "function"
    },
    {
      "inputs": [
        {
          "internalType": "address",
          "name": "_nftFactory",
          "type": "address"
        },
        {
          "internalType": "uint256",
          "name": "_tokenId",
          "type": "uint256"
        },
        {
          "internalType": "uint256",
          "name": "_startingPrice",
          "type": "uint256"
        },
        {
          "internalType": "uint256",
          "name": "_endingPrice",
          "type": "uint256"
        },
        {
          "internalType": "uint128",
          "name": "_duration",
          "type": "uint128"
        },
        {
          "internalType": "uint64",
          "name": "_nftType",
          "type": "uint64"
        }
      ],
      "name": "createAuction",
      "outputs": [],
      "stateMutability": "nonpayable",
      "type": "function"
    },
    {
      "inputs": [],
      "name": "decimals",
      "outputs": [
        {
          "internalType": "uint8",
          "name": "",
          "type": "uint8"
        }
      ],
      "stateMutability": "view",
      "type": "function"
    },
    {
      "inputs": [
        {
          "internalType": "address",
          "name": "spender",
          "type": "address"
        },
        {
          "internalType": "uint256",
          "name": "subtractedValue",
          "type": "uint256"
        }
      ],
      "name": "decreaseAllowance",
      "outputs": [
        {
          "internalType": "bool",
          "name": "",
          "type": "bool"
        }
      ],
      "stateMutability": "nonpayable",
      "type": "function"
    },
    {
      "inputs": [],
      "name": "factory",
      "outputs": [
        {
          "internalType": "address",
          "name": "",
          "type": "address"
        }
      ],
      "stateMutability": "view",
      "type": "function"
    },
    {
      "inputs": [
        {
          "internalType": "uint256",
          "name": "bidId",
          "type": "uint256"
        },
        {
          "internalType": "uint256",
          "name": "_auctionId",
          "type": "uint256"
        }
      ],
      "name": "finishAuction",
      "outputs": [],
      "stateMutability": "nonpayable",
      "type": "function"
    },
    {
      "inputs": [
        {
          "internalType": "uint256",
          "name": "_auctionId",
          "type": "uint256"
        }
      ],
      "name": "getAuctionByAuctionId",
      "outputs": [
        {
          "internalType": "uint256",
          "name": "_id",
          "type": "uint256"
        },
        {
          "internalType": "address",
          "name": "_seller",
          "type": "address"
        },
        {
          "internalType": "address",
          "name": "_nftFactory",
          "type": "address"
        },
        {
          "internalType": "uint256",
          "name": "_tokenId",
          "type": "uint256"
        },
        {
          "internalType": "uint256",
          "name": "_startingPrice",
          "type": "uint256"
        },
        {
          "internalType": "uint256",
          "name": "_endingPrice",
          "type": "uint256"
        },
        {
          "internalType": "uint128",
          "name": "_duration",
          "type": "uint128"
        },
        {
          "internalType": "uint128",
          "name": "_nftType",
          "type": "uint128"
        },
        {
          "internalType": "uint256",
          "name": "_startedAt",
          "type": "uint256"
        },
        {
          "internalType": "uint256",
          "name": "_currentPrice",
          "type": "uint256"
        }
      ],
      "stateMutability": "view",
      "type": "function"
    },
    {
      "inputs": [
        {
          "internalType": "uint256",
          "name": "_auctionId",
          "type": "uint256"
        }
      ],
      "name": "getCurrentPrice",
      "outputs": [
        {
          "internalType": "uint256",
          "name": "",
          "type": "uint256"
        }
      ],
      "stateMutability": "view",
      "type": "function"
    },
    {
      "inputs": [],
      "name": "getInfos",
      "outputs": [
        {
          "internalType": "string",
          "name": "_name",
          "type": "string"
        },
        {
          "internalType": "string",
          "name": "_symbol",
          "type": "string"
        },
        {
          "internalType": "uint256",
          "name": "_supply",
          "type": "uint256"
        }
      ],
      "stateMutability": "view",
      "type": "function"
    },
    {
      "inputs": [
        {
          "internalType": "address",
          "name": "spender",
          "type": "address"
        },
        {
          "internalType": "uint256",
          "name": "addedValue",
          "type": "uint256"
        }
      ],
      "name": "increaseAllowance",
      "outputs": [
        {
          "internalType": "bool",
          "name": "",
          "type": "bool"
        }
      ],
      "stateMutability": "nonpayable",
      "type": "function"
    },
    {
      "inputs": [
        {
          "internalType": "string",
          "name": "_name",
          "type": "string"
        },
        {
          "internalType": "string",
          "name": "_symbol",
          "type": "string"
        },
        {
          "internalType": "address",
          "name": "_vaultOwner",
          "type": "address"
        },
        {
          "internalType": "uint256",
          "name": "_burnPercent",
          "type": "uint256"
        }
      ],
      "name": "init",
      "outputs": [],
      "stateMutability": "nonpayable",
      "type": "function"
    },
    {
      "inputs": [],
      "name": "initialized",
      "outputs": [
        {
          "internalType": "bool",
          "name": "",
          "type": "bool"
        }
      ],
      "stateMutability": "view",
      "type": "function"
    },
    {
      "inputs": [],
      "name": "mintedToken",
      "outputs": [
        {
          "internalType": "bool",
          "name": "",
          "type": "bool"
        }
      ],
      "stateMutability": "view",
      "type": "function"
    },
    {
      "inputs": [],
      "name": "name",
      "outputs": [
        {
          "internalType": "string",
          "name": "",
          "type": "string"
        }
      ],
      "stateMutability": "view",
      "type": "function"
    },
    {
      "inputs": [
        {
          "internalType": "address",
          "name": "operator",
          "type": "address"
        },
        {
          "internalType": "address",
          "name": "",
          "type": "address"
        },
        {
          "internalType": "uint256[]",
          "name": "ids",
          "type": "uint256[]"
        },
        {
          "internalType": "uint256[]",
          "name": "values",
          "type": "uint256[]"
        },
        {
          "internalType": "bytes",
          "name": "data",
          "type": "bytes"
        }
      ],
      "name": "onERC1155BatchReceived",
      "outputs": [
        {
          "internalType": "bytes4",
          "name": "",
          "type": "bytes4"
        }
      ],
      "stateMutability": "nonpayable",
      "type": "function"
    },
    {
      "inputs": [
        {
          "internalType": "address",
          "name": "operator",
          "type": "address"
        },
        {
          "internalType": "address",
          "name": "",
          "type": "address"
        },
        {
          "internalType": "uint256",
          "name": "",
          "type": "uint256"
        },
        {
          "internalType": "uint256",
          "name": "value",
          "type": "uint256"
        },
        {
          "internalType": "bytes",
          "name": "data",
          "type": "bytes"
        }
      ],
      "name": "onERC1155Received",
      "outputs": [
        {
          "internalType": "bytes4",
          "name": "",
          "type": "bytes4"
        }
      ],
      "stateMutability": "nonpayable",
      "type": "function"
    },
    {
      "inputs": [
        {
          "internalType": "address",
          "name": "operator",
          "type": "address"
        },
        {
          "internalType": "address",
          "name": "",
          "type": "address"
        },
        {
          "internalType": "uint256",
          "name": "",
          "type": "uint256"
        },
        {
          "internalType": "bytes",
          "name": "data",
          "type": "bytes"
        }
      ],
      "name": "onERC721Received",
      "outputs": [
        {
          "internalType": "bytes4",
          "name": "",
          "type": "bytes4"
        }
      ],
      "stateMutability": "nonpayable",
      "type": "function"
    },
    {
      "inputs": [
        {
          "internalType": "address[]",
          "name": "nftFactory",
          "type": "address[]"
        },
        {
          "internalType": "uint256[]",
          "name": "nftTokenId",
          "type": "uint256[]"
        },
        {
          "internalType": "uint256[]",
          "name": "nftType",
          "type": "uint256[]"
        },
        {
          "internalType": "uint256[]",
          "name": "sellPrice",
          "type": "uint256[]"
        }
      ],
      "name": "ownerDeposit",
      "outputs": [],
      "stateMutability": "nonpayable",
      "type": "function"
    },
    {
      "inputs": [],
      "name": "symbol",
      "outputs": [
        {
          "internalType": "string",
          "name": "",
          "type": "string"
        }
      ],
      "stateMutability": "view",
      "type": "function"
    },
    {
      "inputs": [
        {
          "internalType": "address",
          "name": "",
          "type": "address"
        },
        {
          "internalType": "uint256",
          "name": "",
          "type": "uint256"
        },
        {
          "internalType": "uint256",
          "name": "",
          "type": "uint256"
        }
      ],
      "name": "tokenData",
      "outputs": [
        {
          "internalType": "address",
          "name": "owner",
          "type": "address"
        },
        {
          "internalType": "uint256",
          "name": "nftType",
          "type": "uint256"
        },
        {
          "internalType": "uint256",
          "name": "price",
          "type": "uint256"
        }
      ],
      "stateMutability": "view",
      "type": "function"
    },
    {
      "inputs": [],
      "name": "totalSupply",
      "outputs": [
        {
          "internalType": "uint256",
          "name": "",
          "type": "uint256"
        }
      ],
      "stateMutability": "view",
      "type": "function"
    },
    {
      "inputs": [
        {
          "internalType": "address",
          "name": "recipient",
          "type": "address"
        },
        {
          "internalType": "uint256",
          "name": "amount",
          "type": "uint256"
        }
      ],
      "name": "transfer",
      "outputs": [
        {
          "internalType": "bool",
          "name": "",
          "type": "bool"
        }
      ],
      "stateMutability": "nonpayable",
      "type": "function"
    },
    {
      "inputs": [
        {
          "internalType": "address",
          "name": "sender",
          "type": "address"
        },
        {
          "internalType": "address",
          "name": "recipient",
          "type": "address"
        },
        {
          "internalType": "uint256",
          "name": "amount",
          "type": "uint256"
        }
      ],
      "name": "transferFrom",
      "outputs": [
        {
          "internalType": "bool",
          "name": "",
          "type": "bool"
        }
      ],
      "stateMutability": "nonpayable",
      "type": "function"
    },
    {
      "inputs": [
        {
          "internalType": "address",
          "name": "nftAddress",
          "type": "address"
        },
        {
          "internalType": "uint256",
          "name": "nftType",
          "type": "uint256"
        },
        {
          "internalType": "address",
          "name": "_from",
          "type": "address"
        },
        {
          "internalType": "address",
          "name": "_to",
          "type": "address"
        },
        {
          "internalType": "uint256",
          "name": "_tokenId",
          "type": "uint256"
        }
      ],
      "name": "transferNft",
      "outputs": [],
      "stateMutability": "nonpayable",
      "type": "function"
    },
    {
      "inputs": [],
      "name": "vaultOwner",
      "outputs": [
        {
          "internalType": "address",
          "name": "",
          "type": "address"
        }
      ],
      "stateMutability": "view",
      "type": "function"
    },
    {
      "inputs": [
        {
          "internalType": "address",
          "name": "nftFactory",
          "type": "address"
        },
        {
          "internalType": "uint256",
          "name": "tokenId",
          "type": "uint256"
        },
        {
          "internalType": "uint256",
          "name": "index",
          "type": "uint256"
        }
      ],
      "name": "withdraw",
      "outputs": [],
      "stateMutability": "nonpayable",
      "type": "function"
    }
  ],
  "bytecode": "0x608060405260058054610100600160a81b031916905534801561002157600080fd5b50613aa9806100316000396000f3fe608060405234801561001057600080fd5b50600436106102325760003560e01c80635edc7c1911610130578063b5c5f672116100b8578063c96c62b91161007c578063c96c62b914610c03578063d1ef5c3e14610d61578063dd62ed3e14610da5578063f23a6e6114610dd3578063fe83bdd814610e9c57610232565b8063b5c5f672146109c8578063bc197c81146109fa578063c45a015514610bbb578063c55d0f5614610bc3578063c6615a9014610be057610232565b8063831e490e116100ff578063831e490e146109585780638542925a1461096057806395d89b4114610968578063a457c2d714610970578063a9059cbb1461099c57610232565b80635edc7c19146106e2578063643d6dc01461081957806370a082311461090657806379cc67901461092c57610232565b80631f52692b116101be578063395093511161018257806339509351146105e557806339d1ee401461061157806339fb73c31461063757806342966c681461068d578063518a9801146106aa57610232565b80631f52692b1461052157806323b872dd146105455780632ac9bf091461057b57806330b1bdce146105a4578063313ce567146105c757610232565b8063150b7a0211610205578063150b7a021461039c578063158ef93e1461047d5780631622dbe41461048557806318160ddd146104bf5780631de8a41e146104c757610232565b8063025483761461023757806303807ee5146102c557806306fdde03146102df578063095ea7b31461035c575b600080fd5b6102546004803603602081101561024d57600080fd5b5035610f21565b604080519a8b526001600160a01b03998a1660208c015297909816898801526060890195909552608088019390935260a08701919091526001600160801b031660c08601526001600160401b0390811660e08601521661010084015261012083019190915251908190036101400190f35b6102cd610f98565b60408051918252519081900360200190f35b6102e7610f9e565b6040805160208082528351818301528351919283929083019185019080838360005b83811015610321578181015183820152602001610309565b50505050905090810190601f16801561034e5780820380516001836020036101000a031916815260200191505b509250505060405180910390f35b6103886004803603604081101561037257600080fd5b506001600160a01b03813516906020013561102c565b604080519115158252519081900360200190f35b610460600480360360808110156103b257600080fd5b6001600160a01b03823581169260208101359091169160408201359190810190608081016060820135600160201b8111156103ec57600080fd5b8201836020820111156103fe57600080fd5b803590602001918460018302840111600160201b8311171561041f57600080fd5b91908080601f016020809104026020016040519081016040528093929190818152602001838380828437600092019190915250929550611043945050505050565b604080516001600160e01b03199092168252519081900360200190f35b610388611053565b6104bd6004803603608081101561049b57600080fd5b506001600160a01b038135169060208101359060408101359060600135611063565b005b6102cd6111e7565b6104f9600480360360608110156104dd57600080fd5b506001600160a01b0381351690602081013590604001356111ed565b604080516001600160a01b039094168452602084019290925282820152519081900360600190f35b610529611244565b604080516001600160a01b039092168252519081900360200190f35b6103886004803603606081101561055b57600080fd5b506001600160a01b03813581169160208101359091169060400135611253565b6104bd6004803603606081101561059157600080fd5b50803590602081013590604001356112bc565b6104bd600480360360408110156105ba57600080fd5b508035906020013561179f565b6105cf611ad6565b6040805160ff9092168252519081900360200190f35b610388600480360360408110156105fb57600080fd5b506001600160a01b038135169060200135611adf565b6104bd6004803603602081101561062757600080fd5b50356001600160401b0316611b15565b6104bd600480360360c081101561064d57600080fd5b5080356001600160a01b03169060208101359060408101359060608101359060808101356001600160801b03169060a001356001600160401b0316611d84565b6104bd600480360360208110156106a357600080fd5b503561205b565b6104bd600480360360808110156106c057600080fd5b506001600160a01b038135169060208101359060408101359060600135612068565b6104bd600480360360808110156106f857600080fd5b810190602081018135600160201b81111561071257600080fd5b82018360208201111561072457600080fd5b803590602001918460018302840111600160201b8311171561074557600080fd5b91908080601f0160208091040260200160405190810160405280939291908181526020018383808284376000920191909152509295949360208101935035915050600160201b81111561079757600080fd5b8201836020820111156107a957600080fd5b803590602001918460018302840111600160201b831117156107ca57600080fd5b91908080601f016020809104026020016040519081016040528093929190818152602001838380828437600092019190915250929550506001600160a01b0383351693505050602001356121ed565b610821612288565b604051808060200180602001848152602001838103835286818151815260200191508051906020019080838360005b83811015610868578181015183820152602001610850565b50505050905090810190601f1680156108955780820380516001836020036101000a031916815260200191505b50838103825285518152855160209182019187019080838360005b838110156108c85781810151838201526020016108b0565b50505050905090810190601f1680156108f55780820380516001836020036101000a031916815260200191505b509550505050505060405180910390f35b6102cd6004803603602081101561091c57600080fd5b50356001600160a01b03166123b7565b6104bd6004803603604081101561094257600080fd5b506001600160a01b0381351690602001356123d6565b6102cd612422565b610388612428565b6102e7612431565b6103886004803603604081101561098657600080fd5b506001600160a01b03813516906020013561248c565b610388600480360360408110156109b257600080fd5b506001600160a01b0381351690602001356124db565b6104bd600480360360608110156109de57600080fd5b506001600160a01b0381351690602081013590604001356124e8565b610460600480360360a0811015610a1057600080fd5b6001600160a01b038235811692602081013590911691810190606081016040820135600160201b811115610a4357600080fd5b820183602082011115610a5557600080fd5b803590602001918460208302840111600160201b83111715610a7657600080fd5b9190808060200260200160405190810160405280939291908181526020018383602002808284376000920191909152509295949360208101935035915050600160201b811115610ac557600080fd5b820183602082011115610ad757600080fd5b803590602001918460208302840111600160201b83111715610af857600080fd5b9190808060200260200160405190810160405280939291908181526020018383602002808284376000920191909152509295949360208101935035915050600160201b811115610b4757600080fd5b820183602082011115610b5957600080fd5b803590602001918460018302840111600160201b83111715610b7a57600080fd5b91908080601f01602080910402602001604051908101604052809392919081815260200183838082843760009201919091525092955061279c945050505050565b6105296127ad565b6102cd60048036036020811015610bd957600080fd5b50356127c1565b6104f960048036036040811015610bf657600080fd5b508035906020013561290e565b6104bd60048036036080811015610c1957600080fd5b810190602081018135600160201b811115610c3357600080fd5b820183602082011115610c4557600080fd5b803590602001918460208302840111600160201b83111715610c6657600080fd5b919390929091602081019035600160201b811115610c8357600080fd5b820183602082011115610c9557600080fd5b803590602001918460208302840111600160201b83111715610cb657600080fd5b919390929091602081019035600160201b811115610cd357600080fd5b820183602082011115610ce557600080fd5b803590602001918460208302840111600160201b83111715610d0657600080fd5b919390929091602081019035600160201b811115610d2357600080fd5b820183602082011115610d3557600080fd5b803590602001918460208302840111600160201b83111715610d5657600080fd5b509092509050612957565b6104bd600480360360a0811015610d7757600080fd5b506001600160a01b038135811691602081013591604082013581169160608101359091169060800135612d3c565b6102cd60048036036040811015610dbb57600080fd5b506001600160a01b0381358116916020013516612e61565b610460600480360360a0811015610de957600080fd5b6001600160a01b03823581169260208101359091169160408201359160608101359181019060a081016080820135600160201b811115610e2857600080fd5b820183602082011115610e3a57600080fd5b803590602001918460018302840111600160201b83111715610e5b57600080fd5b91908080601f016020809104026020016040519081016040528093929190818152602001838380828437600092019190915250929550612e8c945050505050565b610eb960048036036020811015610eb257600080fd5b5035612e9d565b604080519a8b526001600160a01b03998a1660208c015297909816898801526060890195909552608088019390935260a08701919091526001600160801b0390811660c08701521660e085015261010084015261012083019190915251908190036101400190f35b600b602052600090815260409020805460018201546002830154600384015460048501546005860154600687015460079097015495966001600160a01b039586169694909516949293919290916001600160801b038216916001600160401b03600160801b8204811692600160c01b90920416908a565b60075481565b6003805460408051602060026001851615610100026000190190941693909304601f810184900484028201840190925281815292918301828280156110245780601f10610ff957610100808354040283529160200191611024565b820191906000526020600020905b81548152906001019060200180831161100757829003601f168201915b505050505081565b6000611039338484612ffc565b5060015b92915050565b630a85bd0160e11b949350505050565b600554600160a81b900460ff1681565b61106b6135ff565b6001600160a01b0385166000908152600a60209081526040808320878452909152902080548490811061109a57fe5b6000918252602080832060408051606081018252600390940290910180546001600160a01b031680855260018201548585015260029091015484830181905282516323b872dd60e01b815233600482015260248101929092526044820152905192945030936323b872dd93606480840194939192918390030190829087803b15801561112557600080fd5b505af1158015611139573d6000803e3d6000fd5b505050506040513d602081101561114f57600080fd5b505060408051606081018252338152602083810151828201528183018590526001600160a01b0388166000908152600a82528381208882529091529190912080548590811061119a57fe5b600091825260209182902083516003929092020180546001600160a01b0319166001600160a01b039092169190911781559082015160018201556040909101516002909101555050505050565b60025481565b600a602052826000526040600020602052816000526040600020818154811061121257fe5b60009182526020909120600390910201805460018201546002909201546001600160a01b039091169450909250905083565b6006546001600160a01b031681565b60006112608484846130e8565b6112b284336112ad856040518060600160405280602881526020016138c1602891396001600160a01b038a16600090815260016020908152604080832033845290915290205491906131fe565b612ffc565b5060019392505050565b6112c4613629565b506000838152600b60209081526040918290208251610140810184528154815260018201546001600160a01b03908116938201939093526002820154909216928201929092526003820154606082015260048201546080820152600582015460a082015260068201546001600160801b03811660c08301526001600160401b03600160801b8204811660e0840152600160c01b9091041661010082015260079091015461012082018190526113aa5760405162461bcd60e51b815260040180806020018281038252602581526020018061389c6025913960400191505060405180910390fd5b60006113b5856127c1565b9050808410156113f65760405162461bcd60e51b81526004018080602001828103825260388152602001806139516038913960400191505060405180910390fd5b8160c001516001600160801b03168261012001510142111561145f576040805162461bcd60e51b815260206004820152601760248201527f546869732061756374696f6e2069732065787069726564000000000000000000604482015290519081900360640190fd5b6000858152600b6020526040902060060154600160c01b90046001600160401b03166001146114ce576040805162461bcd60e51b8152602060048201526016602482015275105d58dd1a5bdb881b5d5cdd081899481bdc195b995960521b604482015290519081900360640190fd5b815160208084015160608086015160e08701516040808901516000888152600c88528281208351968701845233808852878a018f81528886018f8152835460018082018655948652948c90209951600390950290990180546001600160a01b0319166001600160a01b039095169490941784555191830191909155955160029091015581518881529687018c90528151959693956001600160401b0390931694909390927f19421268847f42dd61705778018ddfc43bcdce8517e7a630acb12f122c709481929181900390910190a28660a001518910611793576000858152600b6020908152604080832060060180546001600160c01b0316905580516323b872dd60e01b81523360048201526001600160a01b0388166024820152604481018d9052905130936323b872dd93606480850194919392918390030190829087803b15801561161b57600080fd5b505af115801561162f573d6000803e3d6000fd5b505050506040513d602081101561164557600080fd5b810190808051906020019092919050505050600a6000826001600160a01b03166001600160a01b0316815260200190815260200160002060008481526020019081526020016000206040518060600160405280336001600160a01b03168152602001846001600160801b031681526020018a815250908060018154018082558091505060019003906000526020600020906003020160009091909190915060008201518160000160006101000a8154816001600160a01b0302191690836001600160a01b0316021790555060208201518160010155604082015181600201555050806001600160a01b0316846001600160a01b03167fd17ab41832e66077c0cc17682df9d20aac33f12d7685bfa73470d8742dd8d7e187868d3360405180858152602001848152602001838152602001826001600160a01b0316815260200194505050505060405180910390a35b50505050505050505050565b6000818152600b602052604090206006810154600160c01b90046001600160401b0316600114611816576040805162461bcd60e51b815260206004820152601f60248201527f4f6e6c792063616e63656c2077697468206f70656e65642061756374696f6e00604482015290519081900360640190fd5b600681015460078201546001600160801b0390911601421015611880576040805162461bcd60e51b815260206004820152601c60248201527f42696464696e6720686176656e27742066696e69736865642079657400000000604482015290519081900360640190fd5b60018101546001600160a01b031633146118cb5760405162461bcd60e51b8152600401808060200182810382526022815260200180613a2d6022913960400191505060405180910390fd5b6000828152600b6020526040902060060180546001600160c01b031690556118f16135ff565b81546000908152600c6020526040902080548590811061190d57fe5b6000918252602080832060408051606081018252600390940290910180546001600160a01b039081168086526001808401548787018190526002909401548786015289015484516323b872dd60e01b8152600481019290925290911660248201526044810191909152905192945030936323b872dd93606480840194939192918390030190829087803b1580156119a357600080fd5b505af11580156119b7573d6000803e3d6000fd5b505050506040513d60208110156119cd57600080fd5b5050600282810180546001600160a01b039081166000908152600a602090815260408083206003808a01805486529184528285208351606080820186528b518916825260068d0154600160801b90046001600160401b03168288019081528c870151838801908152845460018082018755958b529989902093519990950290920180546001600160a01b031916988a1698909817885590518783015591519590980194909455945495880154945487830151885183518c8152948501929092528383015284169282019290925290519382169392909116917fd17ab41832e66077c0cc17682df9d20aac33f12d7685bfa73470d8742dd8d7e1916080908290030190a350505050565b60055460ff1681565b3360008181526001602090815260408083206001600160a01b038716845290915281205490916110399185906112ad9086613295565b611b1d613629565b506001600160401b038082166000908152600b60209081526040808320815161014081018352815480825260018301546001600160a01b0390811683870152600284015416828501526003830154606083015260048301546080830152600583015460a083015260068301546001600160801b03811660c0840152600160801b8104881660e0840152600160c01b9004909616610100820152600790910154610120820152938352600c90915290205415611c11576040805162461bcd60e51b815260206004820152600f60248201526e10a134b23232b71030bab1ba34b7b760891b604482015290519081900360640190fd5b80602001516001600160a01b0316336001600160a01b031614611c655760405162461bcd60e51b81526004018080602001828103825260228152602001806137ee6022913960400191505060405180910390fd5b8061010001516001600160401b0316600114611cc8576040805162461bcd60e51b815260206004820152601f60248201527f4f6e6c792063616e63656c2077697468206f70656e65642061756374696f6e00604482015290519081900360640190fd5b6001600160401b038281166000908152600b60205260409081902060060180546001600160c01b0316600160c11b17905582015160e08301516060840151611d1893919091169030903390612d3c565b80604001516001600160a01b031681602001516001600160a01b03167fcd712a978500da7c68eb10d2f80785280d75a97095702d521f131bf1af4bb83784846060015160405180836001600160401b031681526020018281526020019250505060405180910390a35050565b828410611dc25760405162461bcd60e51b81526004018080602001828103825260238152602001806138e96023913960400191505060405180910390fd5b69021e19e0c9bab24000008410611e0a5760405162461bcd60e51b81526004018080602001828103825260368152602001806139d36036913960400191505060405180910390fd5b611e2086826001600160401b0316333089612d3c565b6040518061014001604052806009548152602001336001600160a01b03168152602001876001600160a01b03168152602001868152602001858152602001848152602001836001600160801b03168152602001826001600160401b0316815260200160016001600160401b0316815260200142815250600b600060095481526020019081526020016000206000820151816000015560208201518160010160006101000a8154816001600160a01b0302191690836001600160a01b0316021790555060408201518160020160006101000a8154816001600160a01b0302191690836001600160a01b03160217905550606082015181600301556080820151816004015560a0820151816005015560c08201518160060160006101000a8154816001600160801b0302191690836001600160801b0316021790555060e08201518160060160106101000a8154816001600160401b0302191690836001600160401b031602179055506101008201518160060160186101000a8154816001600160401b0302191690836001600160401b031602179055506101208201518160070155905050856001600160a01b0316336001600160a01b03167f9b81fb245b44b7b2f7bfad13b1a13abda4dfd97ebf4aa06ddd38a283babf91fd600954888888888860405180878152602001868152602001858152602001848152602001836001600160801b03168152602001826001600160401b03168152602001965050505050505060405180910390a3505060098054600101905550505050565b61206533826132f6565b50565b336000908152600d602090815260408083206001600160a01b0388168452825280832086845290915281205460ff16156120d35760405162461bcd60e51b815260040180806020018281038252602481526020018061375f6024913960400191505060405180910390fd5b6001600160a01b0385166000908152600a60209081526040808320878452909152902080543391908490811061210557fe5b60009182526020909120600390910201546001600160a01b031614612167576040805162461bcd60e51b8152602060048201526013602482015272155cd95c881a5cc81b9bdd081bdddb881b999d606a1b604482015290519081900360640190fd5b604080516060810182523381526001600160a01b0387166000908152600a6020908152838220888352815292902080549192830191859081106121a657fe5b600091825260208083206001600390930201919091015483529182018690526001600160a01b0388168152600a825260408082208883529092522080548490811061119a57fe5b600554600160a81b900460ff161561220457600080fd5b600680546001600160a01b0319166001600160a01b03841617905560058054610100600160a81b031916610100330217905583516122499060039060208701906136a9565b50825161225d9060049060208601906136a9565b506005805460079290925560ff60a81b1960ff1990921660121791909116600160a81b179055505050565b60038054604080516020601f6002600019610100600188161502019095169490940493840181900481028201810190925282815260609384936000938301828280156123155780601f106122ea57610100808354040283529160200191612315565b820191906000526020600020905b8154815290600101906020018083116122f857829003601f168201915b505060048054604080516020601f60026000196101006001881615020190951694909404938401819004810282018101909252828152969950919450925084019050828280156123a65780601f1061237b576101008083540402835291602001916123a6565b820191906000526020600020905b81548152906001019060200180831161238957829003601f168201915b505050505091506002549050909192565b6001600160a01b0381166000908152602081905260409020545b919050565b60006124068260405180606001604052806024815260200161390c602491396123ff8633612e61565b91906131fe565b9050612413833383612ffc565b61241d83836132f6565b505050565b60095481565b60085460ff1681565b6004805460408051602060026001851615610100026000190190941693909304601f810184900484028201840190925281815292918301828280156110245780601f10610ff957610100808354040283529160200191611024565b600061103933846112ad85604051806060016040528060258152602001613a4f602591393360009081526001602090815260408083206001600160a01b038d16845290915290205491906131fe565b60006110393384846130e8565b6124f06135ff565b6001600160a01b0384166000908152600a60209081526040808320868452909152902080548390811061251f57fe5b6000918252602080832060408051606081018252600390940290910180546001600160a01b031680855260018201548585015260029091015484830181905282516323b872dd60e01b815233600482015260248101929092526044820152905192945030936323b872dd93606480840194939192918390030190829087803b1580156125aa57600080fd5b505af11580156125be573d6000803e3d6000fd5b505050506040513d60208110156125d457600080fd5b5050600754604082015130916323b872dd913391600091612602916103e8916125fc916133f2565b9061344b565b6040518463ffffffff1660e01b815260040180846001600160a01b03168152602001836001600160a01b031681526020018281526020019350505050602060405180830381600087803b15801561265857600080fd5b505af115801561266c573d6000803e3d6000fd5b505050506040513d602081101561268257600080fd5b50506020810151612697908590303387612d3c565b6001600160a01b0384166000908152600a602090815260408083208684529091529020805460001981019081106126ca57fe5b600091825260208083206001600160a01b0388168452600a8252604080852088865290925292208054600390920290920191908490811061270757fe5b60009182526020808320845460039093020180546001600160a01b0319166001600160a01b039384161781556001808601549082015560029485015494019390935586168152600a825260408082208683529092522080548061276657fe5b60008281526020812060036000199093019283020180546001600160a01b03191681556001810182905560020155905550505050565b63bc197c8160e01b95945050505050565b60055461010090046001600160a01b031681565b60006127cb613629565b506000828152600b60209081526040918290208251610140810184528154815260018201546001600160a01b03908116938201939093526002820154909216928201929092526003820154606082015260048201546080820152600582015460a082015260068201546001600160801b03811660c08301526001600160401b03600160801b8204811660e0840152600160c01b9091041661010082015260079091015461012082018190526128b15760405162461bcd60e51b815260040180806020018281038252602581526020018061389c6025913960400191505060405180910390fd5b80516000908152600c602052604090205480156129035781516000908152600c60205260409020805460001983019081106128e857fe5b906000526020600020906003020160010154925050506123d1565b506080015192915050565b600c602052816000526040600020818154811061292757fe5b60009182526020909120600390910201805460018201546002909201546001600160a01b03909116935090915083565b6006546001600160a01b031633146129a05760405162461bcd60e51b81526004018080602001828103825260258152602001806139ae6025913960400191505060405180910390fd5b60085460ff16156129e25760405162461bcd60e51b815260040180806020018281038252603081526020018061384b6030913960400191505060405180910390fd5b6000805b82811015612a1d57612a138484838181106129fd57fe5b905060200201358361329590919063ffffffff16565b91506001016129e6565b5087612a70576040805162461bcd60e51b815260206004820152601e60248201527f4174206c656173742031204e4654206d757374206265206465706f7369740000604482015290519081900360640190fd5b8069021e19e0c9bab240000014612ab85760405162461bcd60e51b815260040180806020018281038252603b815260200180613810603b913960400191505060405180910390fd5b60005b88811015612d0357858582818110612acf57fe5b905060200201356102d11480612af85750858582818110612aec57fe5b90506020020135610483145b612b335760405162461bcd60e51b81526004018080602001828103825260238152602001806137cb6023913960400191505060405180910390fd5b612b7f8a8a83818110612b4257fe5b905060200201356001600160a01b0316878784818110612b5e57fe5b9050602002013533308c8c87818110612b7357fe5b90506020020135612d3c565b600a60008b8b84818110612b8f57fe5b905060200201356001600160a01b03166001600160a01b03166001600160a01b031681526020019081526020016000206000898984818110612bcd57fe5b9050602002013581526020019081526020016000206040518060600160405280336001600160a01b03168152602001888885818110612c0857fe5b905060200201358152602001868685818110612c2057fe5b602090810292909201359092528354600180820186556000958652828620855160039093020180546001600160a01b0319166001600160a01b039093169290921782558483015182820155604094850151600290920191909155338552600d909152918320919290508c8c85818110612c9557fe5b905060200201356001600160a01b03166001600160a01b03166001600160a01b0316815260200190815260200160002060008a8a85818110612cd357fe5b60209081029290920135835250810191909152604001600020805460ff1916911515919091179055600101612abb565b50600654612d24906001600160a01b031669021e19e0c9bab24000006134b2565b50506008805460ff1916600117905550505050505050565b836102d11415612dcb57846001600160a01b03166342842e0e8484846040518463ffffffff1660e01b815260040180846001600160a01b03168152602001836001600160a01b031681526020018281526020019350505050600060405180830381600087803b158015612dae57600080fd5b505af1158015612dc2573d6000803e3d6000fd5b50505050612e5a565b836104831415612e5a5760408051637921219560e11b81526001600160a01b0385811660048301528481166024830152604482018490526001606483015260a06084830152600060a4830181905292519088169263f242432a9260e4808201939182900301818387803b158015612e4157600080fd5b505af1158015612e55573d6000803e3d6000fd5b505050505b5050505050565b6001600160a01b03918216600090815260016020908152604080832093909416825291909152205490565b63f23a6e6160e01b95945050505050565b600080600080600080600080600080612eb4613629565b5060008b8152600b60209081526040918290208251610140810184528154815260018201546001600160a01b03908116938201939093526002820154909216928201929092526003820154606082015260048201546080820152600582015460a082015260068201546001600160801b03811660c08301526001600160401b03600160801b8204811660e0840152600160c01b909104166101008201526007909101546101208201819052612f9a5760405162461bcd60e51b815260040180806020018281038252602581526020018061389c6025913960400191505060405180910390fd5b80600001519a50806020015199508060400151985080606001519750806080015196508060a0015195508060c0015194508060e001516001600160401b031693508061012001519250612fec8c6127c1565b9150509193959799509193959799565b6001600160a01b0383166130415760405162461bcd60e51b8152600401808060200182810382526024815260200180613a096024913960400191505060405180910390fd5b6001600160a01b0382166130865760405162461bcd60e51b81526004018080602001828103825260228152602001806137836022913960400191505060405180910390fd5b6001600160a01b03808416600081815260016020908152604080832094871680845294825291829020859055815185815291517f8c5be1e5ebec7d5bd14f71427d1e84f3dd0314c0f7b2291e5b200ac8c7c3b9259281900390910190a3505050565b6001600160a01b03831661312d5760405162461bcd60e51b81526004018080602001828103825260258152602001806139896025913960400191505060405180910390fd5b61313883838361241d565b613175816040518060600160405280602681526020016137a5602691396001600160a01b03861660009081526020819052604090205491906131fe565b6001600160a01b0380851660009081526020819052604080822093909355908416815220546131a49082613295565b6001600160a01b038084166000818152602081815260409182902094909455805185815290519193928716927fddf252ad1be2c89b69c2b068fc378daa952ba7f163c4a11628f55a4df523b3ef92918290030190a3505050565b6000818484111561328d5760405162461bcd60e51b81526004018080602001828103825283818151815260200191508051906020019080838360005b8381101561325257818101518382015260200161323a565b50505050905090810190601f16801561327f5780820380516001836020036101000a031916815260200191505b509250505060405180910390fd5b505050900390565b6000828201838110156132ef576040805162461bcd60e51b815260206004820152601b60248201527f536166654d6174683a206164646974696f6e206f766572666c6f770000000000604482015290519081900360640190fd5b9392505050565b6001600160a01b03821661333b5760405162461bcd60e51b81526004018080602001828103825260218152602001806139306021913960400191505060405180910390fd5b6133478260008361241d565b6133848160405180606001604052806022815260200161373d602291396001600160a01b03851660009081526020819052604090205491906131fe565b6001600160a01b0383166000908152602081905260409020556002546133aa90826135a2565b6002556040805182815290516000916001600160a01b038516917fddf252ad1be2c89b69c2b068fc378daa952ba7f163c4a11628f55a4df523b3ef9181900360200190a35050565b6000826134015750600061103d565b8282028284828161340e57fe5b04146132ef5760405162461bcd60e51b815260040180806020018281038252602181526020018061387b6021913960400191505060405180910390fd5b60008082116134a1576040805162461bcd60e51b815260206004820152601a60248201527f536166654d6174683a206469766973696f6e206279207a65726f000000000000604482015290519081900360640190fd5b8183816134aa57fe5b049392505050565b6001600160a01b03821661350d576040805162461bcd60e51b815260206004820152601f60248201527f45524332303a206d696e7420746f20746865207a65726f206164647265737300604482015290519081900360640190fd5b6135196000838361241d565b6002546135269082613295565b6002556001600160a01b03821660009081526020819052604090205461354c9082613295565b6001600160a01b0383166000818152602081815260408083209490945583518581529351929391927fddf252ad1be2c89b69c2b068fc378daa952ba7f163c4a11628f55a4df523b3ef9281900390910190a35050565b6000828211156135f9576040805162461bcd60e51b815260206004820152601e60248201527f536166654d6174683a207375627472616374696f6e206f766572666c6f770000604482015290519081900360640190fd5b50900390565b604051806060016040528060006001600160a01b0316815260200160008152602001600081525090565b6040518061014001604052806000815260200160006001600160a01b0316815260200160006001600160a01b0316815260200160008152602001600081526020016000815260200160006001600160801b0316815260200160006001600160401b0316815260200160006001600160401b03168152602001600081525090565b828054600181600116156101000203166002900490600052602060002090601f016020900481019282601f106136ea57805160ff1916838001178555613717565b82800160010185558215613717579182015b828111156137175782518255916020019190600101906136fc565b50613723929150613727565b5090565b5b80821115613723576000815560010161372856fe45524332303a206275726e20616d6f756e7420657863656564732062616c616e63655468697320746f6b656e27732070726963652063616e6e6f74206265206368616e67656445524332303a20617070726f766520746f20746865207a65726f206164647265737345524332303a207472616e7366657220616d6f756e7420657863656564732062616c616e63654e4654206d75737420626520455243373731206f72204552433131353520746f6b656e4f6e6c792053656c6c65722063616e2063616e63656c207468652061756374696f6e54686520746f74616c207072696365206f66204e4654204465706f736974206d75737420626520657175616c20746f20313030303020746f6b656e4f776e65722043616e20446f206f776e65724465706f7369742046756e6374696f6e204f6e6c79204f6e652054696d65536166654d6174683a206d756c7469706c69636174696f6e206f766572666c6f775468657265206973206e6f2061756374696f6e20696e20746869732061756374696f6e494445524332303a207472616e7366657220616d6f756e74206578636565647320616c6c6f77616e63657374617274696e672070726963652073686f756c64206e6f742062652068696768657245524332303a206275726e20616d6f756e74206578636565647320616c6c6f77616e636545524332303a206275726e2066726f6d20746865207a65726f2061646472657373596f757220626964206d75737420626520686967686572207468616e2063757272656e742062696420696e20746869732061756374696f6e45524332303a207472616e736665722066726f6d20746865207a65726f20616464726573734f6e6c79205661756c74204f776e65722043616e20446f20546869732046756e6374696f6e7374617274696e672070726963652073686f756c64206265206c657373207468616e206d6178696d756d20746f74616c537570706c7945524332303a20617070726f76652066726f6d20746865207a65726f20616464726573734f6e6c792053656c6c65722063616e2066696e697368207468652061756374696f6e45524332303a2064656372656173656420616c6c6f77616e63652062656c6f77207a65726fa2646970667358221220c80094097331768a754c65f204de42c3890aed64ea11d0444f445897e3cced2664736f6c634300060c0033",
  "linkReferences": {},
  "deployedLinkReferences": {}
}