{
  "_format": "hh-sol-artifact-1",
  "contractName": "Static1",
  "sourceName": "contracts/static.sol",
  "abi": [
    {
      "inputs": [
        {
          "internalType": "uint128",
          "name": "a",
          "type": "uint128"
        },
        {
          "internalType": "string",
          "name": "b",
          "type": "string"
        },
        {
          "internalType": "uint128",
          "name": "c",
          "type": "uint128"
        }
      ],
      "name": "statistics",
      "outputs": [],
      "stateMutability": "nonpayable",
      "type": "function"
    },
    {
      "inputs": [
        {
          "internalType": "uint128[]",
          "name": "a",
          "type": "uint128[]"
        },
        {
          "internalType": "uint256",
          "name": "b",
          "type": "uint256"
        },
        {
          "internalType": "uint128",
          "name": "c",
          "type": "uint128"
        }
      ],
      "name": "statistics1",
      "outputs": [],
      "stateMutability": "nonpayable",
      "type": "function"
    },
    {
      "inputs": [
        {
          "internalType": "string",
          "name": "a",
          "type": "string"
        },
        {
          "internalType": "uint256",
          "name": "b",
          "type": "uint256"
        },
        {
          "internalType": "uint128",
          "name": "c",
          "type": "uint128"
        }
      ],
      "name": "statistics2",
      "outputs": [],
      "stateMutability": "nonpayable",
      "type": "function"
    },
    {
      "inputs": [
        {
          "internalType": "bytes",
          "name": "a",
          "type": "bytes"
        },
        {
          "internalType": "uint256",
          "name": "b",
          "type": "uint256"
        },
        {
          "internalType": "uint128",
          "name": "c",
          "type": "uint128"
        }
      ],
      "name": "statistics3",
      "outputs": [],
      "stateMutability": "nonpayable",
      "type": "function"
    },
    {
      "inputs": [
        {
          "internalType": "bytes32",
          "name": "a",
          "type": "bytes32"
        },
        {
          "internalType": "uint256",
          "name": "b",
          "type": "uint256"
        },
        {
          "internalType": "uint128",
          "name": "c",
          "type": "uint128"
        }
      ],
      "name": "statistics4",
      "outputs": [],
      "stateMutability": "nonpayable",
      "type": "function"
    },
    {
      "inputs": [
        {
          "components": [
            {
              "internalType": "uint256",
              "name": "dd",
              "type": "uint256"
            },
            {
              "internalType": "uint256",
              "name": "kjd",
              "type": "uint256"
            }
          ],
          "internalType": "struct Static1.aa",
          "name": "a",
          "type": "tuple"
        },
        {
          "internalType": "uint256",
          "name": "b",
          "type": "uint256"
        },
        {
          "internalType": "uint128",
          "name": "c",
          "type": "uint128"
        }
      ],
      "name": "statistics5",
      "outputs": [],
      "stateMutability": "nonpayable",
      "type": "function"
    }
  ],
  "bytecode": "0x608060405234801561001057600080fd5b50610400806100206000396000f3fe608060405234801561001057600080fd5b50600436106100625760003560e01c8063253c6142146100675780633512e3331461007c578063462fb0ec1461008a5780637f3a368414610098578063908b1e5b146100a6578063ccee8c5f146100b4575b600080fd5b61007a610075366004610212565b6100c2565b005b61007a6100753660046102e4565b61007a61007536600461014d565b61007a61007536600461028b565b61007a610075366004610336565b61007a61007536600461023e565b505050565b600082601f8301126100d7578081fd5b813567ffffffffffffffff8111156100ed578182fd5b610100601f8201601f191660200161038b565b915080825283602082850101111561011757600080fd5b8060208401602084013760009082016020015292915050565b80356001600160801b038116811461014757600080fd5b92915050565b600080600060608486031215610161578283fd5b833567ffffffffffffffff80821115610178578485fd5b81860187601f820112610189578586fd5b8035925081831115610199578586fd5b602091508183026101ab83820161038b565b8481528381019083850183850186018c10156101c557898afd5b8994505b868510156101ef576101db8c82610130565b8352600194909401939185019185016101c9565b509750505050850135925061020990508560408601610130565b90509250925092565b600080600060608486031215610226578283fd5b83359250602084013591506102098560408601610130565b600080600060608486031215610252578283fd5b833567ffffffffffffffff811115610268578384fd5b610274868287016100c7565b935050602084013591506102098560408601610130565b60008060006060848603121561029f578283fd5b833567ffffffffffffffff8111156102b5578384fd5b6102c1868287016100c7565b9350506020840135915060408401356102d9816103b2565b809150509250925092565b600080600083850360808112156102f9578384fd5b6040811215610306578384fd5b50610311604061038b565b843581526020808601359082015292506040840135915060608401356102d9816103b2565b60008060006060848603121561034a578283fd5b6103548585610130565b9250602084013567ffffffffffffffff81111561036f578283fd5b61037b868287016100c7565b9250506102098560408601610130565b60405181810167ffffffffffffffff811182821017156103aa57600080fd5b604052919050565b6001600160801b03811681146103c757600080fd5b5056fea2646970667358221220c2bf3891d6ba359d1d732bb6843a15bc0a081a0a7c9bdea896068b03a3b8ed3a64736f6c63430006060033",
  "linkReferences": {},
  "deployedLinkReferences": {}
}