{
  "_format": "hh-sol-artifact-1",
  "contractName": "Static2",
  "sourceName": "contracts/static.sol",
  "abi": [
    {
      "inputs": [
        {
          "internalType": "string",
          "name": "b",
          "type": "string"
        },
        {
          "internalType": "uint128",
          "name": "a",
          "type": "uint128"
        },
        {
          "internalType": "uint128",
          "name": "c",
          "type": "uint128"
        }
      ],
      "name": "statistics",
      "outputs": [],
      "stateMutability": "nonpayable",
      "type": "function"
    }
  ],
  "bytecode": "0x608060405234801561001057600080fd5b50610164806100206000396000f3fe608060405234801561001057600080fd5b506004361061002b5760003560e01c80639dc3d1d314610030575b600080fd5b61004361003e366004610070565b610045565b005b505050565b80356fffffffffffffffffffffffffffffffff8116811461006a57600080fd5b92915050565b600080600060608486031215610084578283fd5b833567ffffffffffffffff8082111561009b578485fd5b81860187601f8201126100ac578586fd5b80359250818311156100bc578586fd5b6040516020601f8501601f19168201810184811183821017156100dd578889fd5b60405284825282850181018a10156100f3578788fd5b8481840182840137878186840101528197506101118a828b0161004a565b96505050505050610125856040860161004a565b9050925092509256fea2646970667358221220a4a3da39a27e7218f5acf449b55fc346fb0c44e6d9c3474ae71afff987d3843864736f6c63430006060033",
  "linkReferences": {},
  "deployedLinkReferences": {}
}