{
  "_format": "hh-sol-artifact-1",
  "contractName": "C",
  "sourceName": "contracts/test.sol",
  "abi": [
    {
      "inputs": [],
      "name": "f",
      "outputs": [],
      "stateMutability": "nonpayable",
      "type": "function"
    }
  ],
  "bytecode": "0x6080604052348015600f57600080fd5b50606d80601d6000396000f3fe6080604052348015600f57600080fd5b506004361060285760003560e01c806326121ff014602d575b600080fd5b60336035565b005b56fea2646970667358221220e512bcfc1a10df2b17984b8d2f6f9db22503fb8cc2003934b4fce78c33ba9c8a64736f6c634300060c0033",
  "linkReferences": {},
  "deployedLinkReferences": {}
}